{
  "_format": "hh-sol-artifact-1",
  "contractName": "AnonAadhaarBalanceCredentialIssuer",
  "sourceName": "contracts/anon-aadhaar/AnonAadhaarBalanceCredentialIssuer.sol",
  "abi": [
    {
      "inputs": [],
      "name": "InvalidInitialization",
      "type": "error"
    },
    {
      "inputs": [],
      "name": "NotInitializing",
      "type": "error"
    },
    {
      "inputs": [
        {
          "internalType": "address",
          "name": "owner",
          "type": "address"
        }
      ],
      "name": "OwnableInvalidOwner",
      "type": "error"
    },
    {
      "inputs": [
        {
          "internalType": "address",
          "name": "account",
          "type": "address"
        }
      ],
      "name": "OwnableUnauthorizedAccount",
      "type": "error"
    },
    {
      "anonymous": false,
      "inputs": [
        {
          "indexed": false,
          "internalType": "uint64",
          "name": "version",
          "type": "uint64"
        }
      ],
      "name": "Initialized",
      "type": "event"
    },
    {
      "anonymous": false,
      "inputs": [
        {
          "indexed": true,
          "internalType": "address",
          "name": "previousOwner",
          "type": "address"
        },
        {
          "indexed": true,
          "internalType": "address",
          "name": "newOwner",
          "type": "address"
        }
      ],
      "name": "OwnershipTransferStarted",
      "type": "event"
    },
    {
      "anonymous": false,
      "inputs": [
        {
          "indexed": true,
          "internalType": "address",
          "name": "previousOwner",
          "type": "address"
        },
        {
          "indexed": true,
          "internalType": "address",
          "name": "newOwner",
          "type": "address"
        }
      ],
      "name": "OwnershipTransferred",
      "type": "event"
    },
    {
      "inputs": [],
      "name": "CREDENTIAL_ADAPTER_VERSION",
      "outputs": [
        {
          "internalType": "string",
          "name": "",
          "type": "string"
        }
      ],
      "stateMutability": "view",
      "type": "function"
    },
    {
      "inputs": [],
      "name": "VERSION",
      "outputs": [
        {
          "internalType": "string",
          "name": "",
          "type": "string"
        }
      ],
      "stateMutability": "view",
      "type": "function"
    },
    {
      "inputs": [],
      "name": "acceptOwnership",
      "outputs": [],
      "stateMutability": "nonpayable",
      "type": "function"
    },
    {
      "inputs": [],
      "name": "anonAadhaarVerifierAddr",
      "outputs": [
        {
          "internalType": "address",
          "name": "",
          "type": "address"
        }
      ],
      "stateMutability": "view",
      "type": "function"
    },
    {
      "inputs": [
        {
          "internalType": "uint256",
          "name": "claimIndexHash",
          "type": "uint256"
        }
      ],
      "name": "getClaimProof",
      "outputs": [
        {
          "components": [
            {
              "internalType": "uint256",
              "name": "root",
              "type": "uint256"
            },
            {
              "internalType": "bool",
              "name": "existence",
              "type": "bool"
            },
            {
              "internalType": "uint256[]",
              "name": "siblings",
              "type": "uint256[]"
            },
            {
              "internalType": "uint256",
              "name": "index",
              "type": "uint256"
            },
            {
              "internalType": "uint256",
              "name": "value",
              "type": "uint256"
            },
            {
              "internalType": "bool",
              "name": "auxExistence",
              "type": "bool"
            },
            {
              "internalType": "uint256",
              "name": "auxIndex",
              "type": "uint256"
            },
            {
              "internalType": "uint256",
              "name": "auxValue",
              "type": "uint256"
            }
          ],
          "internalType": "struct SmtLib.Proof",
          "name": "",
          "type": "tuple"
        }
      ],
      "stateMutability": "view",
      "type": "function"
    },
    {
      "inputs": [
        {
          "internalType": "uint256",
          "name": "claimIndexHash",
          "type": "uint256"
        },
        {
          "internalType": "uint256",
          "name": "root",
          "type": "uint256"
        }
      ],
      "name": "getClaimProofByRoot",
      "outputs": [
        {
          "components": [
            {
              "internalType": "uint256",
              "name": "root",
              "type": "uint256"
            },
            {
              "internalType": "bool",
              "name": "existence",
              "type": "bool"
            },
            {
              "internalType": "uint256[]",
              "name": "siblings",
              "type": "uint256[]"
            },
            {
              "internalType": "uint256",
              "name": "index",
              "type": "uint256"
            },
            {
              "internalType": "uint256",
              "name": "value",
              "type": "uint256"
            },
            {
              "internalType": "bool",
              "name": "auxExistence",
              "type": "bool"
            },
            {
              "internalType": "uint256",
              "name": "auxIndex",
              "type": "uint256"
            },
            {
              "internalType": "uint256",
              "name": "auxValue",
              "type": "uint256"
            }
          ],
          "internalType": "struct SmtLib.Proof",
          "name": "",
          "type": "tuple"
        }
      ],
      "stateMutability": "view",
      "type": "function"
    },
    {
      "inputs": [
        {
          "internalType": "uint256",
          "name": "claimIndexHash",
          "type": "uint256"
        }
      ],
      "name": "getClaimProofWithStateInfo",
      "outputs": [
        {
          "components": [
            {
              "internalType": "uint256",
              "name": "root",
              "type": "uint256"
            },
            {
              "internalType": "bool",
              "name": "existence",
              "type": "bool"
            },
            {
              "internalType": "uint256[]",
              "name": "siblings",
              "type": "uint256[]"
            },
            {
              "internalType": "uint256",
              "name": "index",
              "type": "uint256"
            },
            {
              "internalType": "uint256",
              "name": "value",
              "type": "uint256"
            },
            {
              "internalType": "bool",
              "name": "auxExistence",
              "type": "bool"
            },
            {
              "internalType": "uint256",
              "name": "auxIndex",
              "type": "uint256"
            },
            {
              "internalType": "uint256",
              "name": "auxValue",
              "type": "uint256"
            }
          ],
          "internalType": "struct SmtLib.Proof",
          "name": "",
          "type": "tuple"
        },
        {
          "components": [
            {
              "internalType": "uint256",
              "name": "state",
              "type": "uint256"
            },
            {
              "internalType": "uint256",
              "name": "claimsRoot",
              "type": "uint256"
            },
            {
              "internalType": "uint256",
              "name": "revocationsRoot",
              "type": "uint256"
            },
            {
              "internalType": "uint256",
              "name": "rootsRoot",
              "type": "uint256"
            }
          ],
          "internalType": "struct IdentityLib.StateInfo",
          "name": "",
          "type": "tuple"
        }
      ],
      "stateMutability": "view",
      "type": "function"
    },
    {
      "inputs": [],
      "name": "getClaimsTreeRoot",
      "outputs": [
        {
          "internalType": "uint256",
          "name": "",
          "type": "uint256"
        }
      ],
      "stateMutability": "view",
      "type": "function"
    },
    {
      "inputs": [
        {
          "internalType": "uint256",
          "name": "_userId",
          "type": "uint256"
        },
        {
          "internalType": "uint256",
          "name": "_credentialId",
          "type": "uint256"
        }
      ],
      "name": "getCredential",
      "outputs": [
        {
          "components": [
            {
              "internalType": "uint256",
              "name": "id",
              "type": "uint256"
            },
            {
              "internalType": "string[]",
              "name": "context",
              "type": "string[]"
            },
            {
              "internalType": "string",
              "name": "_type",
              "type": "string"
            },
            {
              "internalType": "uint64",
              "name": "issuanceDate",
              "type": "uint64"
            },
            {
              "components": [
                {
                  "internalType": "string",
                  "name": "id",
                  "type": "string"
                },
                {
                  "internalType": "string",
                  "name": "_type",
                  "type": "string"
                }
              ],
              "internalType": "struct INonMerklizedIssuer.CredentialSchema",
              "name": "credentialSchema",
              "type": "tuple"
            },
            {
              "components": [
                {
                  "internalType": "string",
                  "name": "id",
                  "type": "string"
                },
                {
                  "internalType": "string",
                  "name": "_type",
                  "type": "string"
                }
              ],
              "internalType": "struct INonMerklizedIssuer.DisplayMethod",
              "name": "displayMethod",
              "type": "tuple"
            }
          ],
          "internalType": "struct INonMerklizedIssuer.CredentialData",
          "name": "",
          "type": "tuple"
        },
        {
          "internalType": "uint256[8]",
          "name": "",
          "type": "uint256[8]"
        },
        {
          "components": [
            {
              "internalType": "string",
              "name": "key",
              "type": "string"
            },
            {
              "internalType": "uint256",
              "name": "value",
              "type": "uint256"
            },
            {
              "internalType": "bytes",
              "name": "rawValue",
              "type": "bytes"
            }
          ],
          "internalType": "struct INonMerklizedIssuer.SubjectField[]",
          "name": "",
          "type": "tuple[]"
        }
      ],
      "stateMutability": "view",
      "type": "function"
    },
    {
      "inputs": [],
      "name": "getCredentialAdapterVersion",
      "outputs": [
        {
          "internalType": "string",
          "name": "",
          "type": "string"
        }
      ],
      "stateMutability": "pure",
      "type": "function"
    },
    {
      "inputs": [],
      "name": "getId",
      "outputs": [
        {
          "internalType": "uint256",
          "name": "",
          "type": "uint256"
        }
      ],
      "stateMutability": "view",
      "type": "function"
    },
    {
      "inputs": [],
      "name": "getIsOldStateGenesis",
      "outputs": [
        {
          "internalType": "bool",
          "name": "",
          "type": "bool"
        }
      ],
      "stateMutability": "view",
      "type": "function"
    },
    {
      "inputs": [],
      "name": "getLatestPublishedClaimsRoot",
      "outputs": [
        {
          "internalType": "uint256",
          "name": "",
          "type": "uint256"
        }
      ],
      "stateMutability": "view",
      "type": "function"
    },
    {
      "inputs": [],
      "name": "getLatestPublishedRevocationsRoot",
      "outputs": [
        {
          "internalType": "uint256",
          "name": "",
          "type": "uint256"
        }
      ],
      "stateMutability": "view",
      "type": "function"
    },
    {
      "inputs": [],
      "name": "getLatestPublishedRootsRoot",
      "outputs": [
        {
          "internalType": "uint256",
          "name": "",
          "type": "uint256"
        }
      ],
      "stateMutability": "view",
      "type": "function"
    },
    {
      "inputs": [],
      "name": "getLatestPublishedState",
      "outputs": [
        {
          "internalType": "uint256",
          "name": "",
          "type": "uint256"
        }
      ],
      "stateMutability": "view",
      "type": "function"
    },
    {
      "inputs": [
        {
          "internalType": "uint64",
          "name": "revocationNonce",
          "type": "uint64"
        }
      ],
      "name": "getRevocationProof",
      "outputs": [
        {
          "components": [
            {
              "internalType": "uint256",
              "name": "root",
              "type": "uint256"
            },
            {
              "internalType": "bool",
              "name": "existence",
              "type": "bool"
            },
            {
              "internalType": "uint256[]",
              "name": "siblings",
              "type": "uint256[]"
            },
            {
              "internalType": "uint256",
              "name": "index",
              "type": "uint256"
            },
            {
              "internalType": "uint256",
              "name": "value",
              "type": "uint256"
            },
            {
              "internalType": "bool",
              "name": "auxExistence",
              "type": "bool"
            },
            {
              "internalType": "uint256",
              "name": "auxIndex",
              "type": "uint256"
            },
            {
              "internalType": "uint256",
              "name": "auxValue",
              "type": "uint256"
            }
          ],
          "internalType": "struct SmtLib.Proof",
          "name": "",
          "type": "tuple"
        }
      ],
      "stateMutability": "view",
      "type": "function"
    },
    {
      "inputs": [
        {
          "internalType": "uint64",
          "name": "revocationNonce",
          "type": "uint64"
        },
        {
          "internalType": "uint256",
          "name": "root",
          "type": "uint256"
        }
      ],
      "name": "getRevocationProofByRoot",
      "outputs": [
        {
          "components": [
            {
              "internalType": "uint256",
              "name": "root",
              "type": "uint256"
            },
            {
              "internalType": "bool",
              "name": "existence",
              "type": "bool"
            },
            {
              "internalType": "uint256[]",
              "name": "siblings",
              "type": "uint256[]"
            },
            {
              "internalType": "uint256",
              "name": "index",
              "type": "uint256"
            },
            {
              "internalType": "uint256",
              "name": "value",
              "type": "uint256"
            },
            {
              "internalType": "bool",
              "name": "auxExistence",
              "type": "bool"
            },
            {
              "internalType": "uint256",
              "name": "auxIndex",
              "type": "uint256"
            },
            {
              "internalType": "uint256",
              "name": "auxValue",
              "type": "uint256"
            }
          ],
          "internalType": "struct SmtLib.Proof",
          "name": "",
          "type": "tuple"
        }
      ],
      "stateMutability": "view",
      "type": "function"
    },
    {
      "inputs": [
        {
          "internalType": "uint64",
          "name": "revocationNonce",
          "type": "uint64"
        }
      ],
      "name": "getRevocationProofWithStateInfo",
      "outputs": [
        {
          "components": [
            {
              "internalType": "uint256",
              "name": "root",
              "type": "uint256"
            },
            {
              "internalType": "bool",
              "name": "existence",
              "type": "bool"
            },
            {
              "internalType": "uint256[]",
              "name": "siblings",
              "type": "uint256[]"
            },
            {
              "internalType": "uint256",
              "name": "index",
              "type": "uint256"
            },
            {
              "internalType": "uint256",
              "name": "value",
              "type": "uint256"
            },
            {
              "internalType": "bool",
              "name": "auxExistence",
              "type": "bool"
            },
            {
              "internalType": "uint256",
              "name": "auxIndex",
              "type": "uint256"
            },
            {
              "internalType": "uint256",
              "name": "auxValue",
              "type": "uint256"
            }
          ],
          "internalType": "struct SmtLib.Proof",
          "name": "",
          "type": "tuple"
        },
        {
          "components": [
            {
              "internalType": "uint256",
              "name": "state",
              "type": "uint256"
            },
            {
              "internalType": "uint256",
              "name": "claimsRoot",
              "type": "uint256"
            },
            {
              "internalType": "uint256",
              "name": "revocationsRoot",
              "type": "uint256"
            },
            {
              "internalType": "uint256",
              "name": "rootsRoot",
              "type": "uint256"
            }
          ],
          "internalType": "struct IdentityLib.StateInfo",
          "name": "",
          "type": "tuple"
        }
      ],
      "stateMutability": "view",
      "type": "function"
    },
    {
      "inputs": [
        {
          "internalType": "uint256",
          "name": "id",
          "type": "uint256"
        },
        {
          "internalType": "uint64",
          "name": "nonce",
          "type": "uint64"
        }
      ],
      "name": "getRevocationStatus",
      "outputs": [
        {
          "components": [
            {
              "components": [
                {
                  "internalType": "uint256",
                  "name": "state",
                  "type": "uint256"
                },
                {
                  "internalType": "uint256",
                  "name": "claimsTreeRoot",
                  "type": "uint256"
                },
                {
                  "internalType": "uint256",
                  "name": "revocationTreeRoot",
                  "type": "uint256"
                },
                {
                  "internalType": "uint256",
                  "name": "rootOfRoots",
                  "type": "uint256"
                }
              ],
              "internalType": "struct IOnchainCredentialStatusResolver.IdentityStateRoots",
              "name": "issuer",
              "type": "tuple"
            },
            {
              "components": [
                {
                  "internalType": "uint256",
                  "name": "root",
                  "type": "uint256"
                },
                {
                  "internalType": "bool",
                  "name": "existence",
                  "type": "bool"
                },
                {
                  "internalType": "uint256[]",
                  "name": "siblings",
                  "type": "uint256[]"
                },
                {
                  "internalType": "uint256",
                  "name": "index",
                  "type": "uint256"
                },
                {
                  "internalType": "uint256",
                  "name": "value",
                  "type": "uint256"
                },
                {
                  "internalType": "bool",
                  "name": "auxExistence",
                  "type": "bool"
                },
                {
                  "internalType": "uint256",
                  "name": "auxIndex",
                  "type": "uint256"
                },
                {
                  "internalType": "uint256",
                  "name": "auxValue",
                  "type": "uint256"
                }
              ],
              "internalType": "struct IOnchainCredentialStatusResolver.Proof",
              "name": "mtp",
              "type": "tuple"
            }
          ],
          "internalType": "struct IOnchainCredentialStatusResolver.CredentialStatus",
          "name": "",
          "type": "tuple"
        }
      ],
      "stateMutability": "view",
      "type": "function"
    },
    {
      "inputs": [
        {
          "internalType": "uint256",
          "name": "id",
          "type": "uint256"
        },
        {
          "internalType": "uint256",
          "name": "state",
          "type": "uint256"
        },
        {
          "internalType": "uint64",
          "name": "nonce",
          "type": "uint64"
        }
      ],
      "name": "getRevocationStatusByIdAndState",
      "outputs": [
        {
          "components": [
            {
              "components": [
                {
                  "internalType": "uint256",
                  "name": "state",
                  "type": "uint256"
                },
                {
                  "internalType": "uint256",
                  "name": "claimsTreeRoot",
                  "type": "uint256"
                },
                {
                  "internalType": "uint256",
                  "name": "revocationTreeRoot",
                  "type": "uint256"
                },
                {
                  "internalType": "uint256",
                  "name": "rootOfRoots",
                  "type": "uint256"
                }
              ],
              "internalType": "struct IOnchainCredentialStatusResolver.IdentityStateRoots",
              "name": "issuer",
              "type": "tuple"
            },
            {
              "components": [
                {
                  "internalType": "uint256",
                  "name": "root",
                  "type": "uint256"
                },
                {
                  "internalType": "bool",
                  "name": "existence",
                  "type": "bool"
                },
                {
                  "internalType": "uint256[]",
                  "name": "siblings",
                  "type": "uint256[]"
                },
                {
                  "internalType": "uint256",
                  "name": "index",
                  "type": "uint256"
                },
                {
                  "internalType": "uint256",
                  "name": "value",
                  "type": "uint256"
                },
                {
                  "internalType": "bool",
                  "name": "auxExistence",
                  "type": "bool"
                },
                {
                  "internalType": "uint256",
                  "name": "auxIndex",
                  "type": "uint256"
                },
                {
                  "internalType": "uint256",
                  "name": "auxValue",
                  "type": "uint256"
                }
              ],
              "internalType": "struct IOnchainCredentialStatusResolver.Proof",
              "name": "mtp",
              "type": "tuple"
            }
          ],
          "internalType": "struct IOnchainCredentialStatusResolver.CredentialStatus",
          "name": "",
          "type": "tuple"
        }
      ],
      "stateMutability": "view",
      "type": "function"
    },
    {
      "inputs": [],
      "name": "getRevocationsTreeRoot",
      "outputs": [
        {
          "internalType": "uint256",
          "name": "",
          "type": "uint256"
        }
      ],
      "stateMutability": "view",
      "type": "function"
    },
    {
      "inputs": [
        {
          "internalType": "uint256",
          "name": "rootsTreeRoot",
          "type": "uint256"
        }
      ],
      "name": "getRootProof",
      "outputs": [
        {
          "components": [
            {
              "internalType": "uint256",
              "name": "root",
              "type": "uint256"
            },
            {
              "internalType": "bool",
              "name": "existence",
              "type": "bool"
            },
            {
              "internalType": "uint256[]",
              "name": "siblings",
              "type": "uint256[]"
            },
            {
              "internalType": "uint256",
              "name": "index",
              "type": "uint256"
            },
            {
              "internalType": "uint256",
              "name": "value",
              "type": "uint256"
            },
            {
              "internalType": "bool",
              "name": "auxExistence",
              "type": "bool"
            },
            {
              "internalType": "uint256",
              "name": "auxIndex",
              "type": "uint256"
            },
            {
              "internalType": "uint256",
              "name": "auxValue",
              "type": "uint256"
            }
          ],
          "internalType": "struct SmtLib.Proof",
          "name": "",
          "type": "tuple"
        }
      ],
      "stateMutability": "view",
      "type": "function"
    },
    {
      "inputs": [
        {
          "internalType": "uint256",
          "name": "claimsTreeRoot",
          "type": "uint256"
        },
        {
          "internalType": "uint256",
          "name": "root",
          "type": "uint256"
        }
      ],
      "name": "getRootProofByRoot",
      "outputs": [
        {
          "components": [
            {
              "internalType": "uint256",
              "name": "root",
              "type": "uint256"
            },
            {
              "internalType": "bool",
              "name": "existence",
              "type": "bool"
            },
            {
              "internalType": "uint256[]",
              "name": "siblings",
              "type": "uint256[]"
            },
            {
              "internalType": "uint256",
              "name": "index",
              "type": "uint256"
            },
            {
              "internalType": "uint256",
              "name": "value",
              "type": "uint256"
            },
            {
              "internalType": "bool",
              "name": "auxExistence",
              "type": "bool"
            },
            {
              "internalType": "uint256",
              "name": "auxIndex",
              "type": "uint256"
            },
            {
              "internalType": "uint256",
              "name": "auxValue",
              "type": "uint256"
            }
          ],
          "internalType": "struct SmtLib.Proof",
          "name": "",
          "type": "tuple"
        }
      ],
      "stateMutability": "view",
      "type": "function"
    },
    {
      "inputs": [
        {
          "internalType": "uint256",
          "name": "rootsTreeRoot",
          "type": "uint256"
        }
      ],
      "name": "getRootProofWithStateInfo",
      "outputs": [
        {
          "components": [
            {
              "internalType": "uint256",
              "name": "root",
              "type": "uint256"
            },
            {
              "internalType": "bool",
              "name": "existence",
              "type": "bool"
            },
            {
              "internalType": "uint256[]",
              "name": "siblings",
              "type": "uint256[]"
            },
            {
              "internalType": "uint256",
              "name": "index",
              "type": "uint256"
            },
            {
              "internalType": "uint256",
              "name": "value",
              "type": "uint256"
            },
            {
              "internalType": "bool",
              "name": "auxExistence",
              "type": "bool"
            },
            {
              "internalType": "uint256",
              "name": "auxIndex",
              "type": "uint256"
            },
            {
              "internalType": "uint256",
              "name": "auxValue",
              "type": "uint256"
            }
          ],
          "internalType": "struct SmtLib.Proof",
          "name": "",
          "type": "tuple"
        },
        {
          "components": [
            {
              "internalType": "uint256",
              "name": "state",
              "type": "uint256"
            },
            {
              "internalType": "uint256",
              "name": "claimsRoot",
              "type": "uint256"
            },
            {
              "internalType": "uint256",
              "name": "revocationsRoot",
              "type": "uint256"
            },
            {
              "internalType": "uint256",
              "name": "rootsRoot",
              "type": "uint256"
            }
          ],
          "internalType": "struct IdentityLib.StateInfo",
          "name": "",
          "type": "tuple"
        }
      ],
      "stateMutability": "view",
      "type": "function"
    },
    {
      "inputs": [
        {
          "internalType": "uint256",
          "name": "state",
          "type": "uint256"
        }
      ],
      "name": "getRootsByState",
      "outputs": [
        {
          "components": [
            {
              "internalType": "uint256",
              "name": "claimsRoot",
              "type": "uint256"
            },
            {
              "internalType": "uint256",
              "name": "revocationsRoot",
              "type": "uint256"
            },
            {
              "internalType": "uint256",
              "name": "rootsRoot",
              "type": "uint256"
            }
          ],
          "internalType": "struct IdentityLib.Roots",
          "name": "",
          "type": "tuple"
        }
      ],
      "stateMutability": "view",
      "type": "function"
    },
    {
      "inputs": [],
      "name": "getRootsTreeRoot",
      "outputs": [
        {
          "internalType": "uint256",
          "name": "",
          "type": "uint256"
        }
      ],
      "stateMutability": "view",
      "type": "function"
    },
    {
      "inputs": [],
      "name": "getSmtDepth",
      "outputs": [
        {
          "internalType": "uint256",
          "name": "",
          "type": "uint256"
        }
      ],
      "stateMutability": "pure",
      "type": "function"
    },
    {
      "inputs": [
        {
          "internalType": "uint256",
          "name": "_userId",
          "type": "uint256"
        }
      ],
      "name": "getUserCredentialIds",
      "outputs": [
        {
          "internalType": "uint256[]",
          "name": "",
          "type": "uint256[]"
        }
      ],
      "stateMutability": "view",
      "type": "function"
    },
    {
      "inputs": [
        {
          "internalType": "address",
          "name": "_stateContractAddr",
          "type": "address"
        },
        {
          "internalType": "address",
          "name": "_verifierAddr",
          "type": "address"
        }
      ],
      "name": "initialize",
      "outputs": [],
      "stateMutability": "nonpayable",
      "type": "function"
    },
    {
      "inputs": [
        {
          "internalType": "address",
          "name": "_stateContractAddr",
          "type": "address"
        }
      ],
      "name": "initialize",
      "outputs": [],
      "stateMutability": "nonpayable",
      "type": "function"
    },
    {
      "inputs": [
        {
          "internalType": "uint256",
          "name": "timestamp",
          "type": "uint256"
        }
      ],
      "name": "isLessThan3HoursAgo",
      "outputs": [
        {
          "internalType": "bool",
          "name": "",
          "type": "bool"
        }
      ],
      "stateMutability": "view",
      "type": "function"
    },
    {
      "inputs": [
        {
          "internalType": "uint256",
          "name": "_userId",
          "type": "uint256"
        },
        {
          "internalType": "uint256",
          "name": "nullifierSeed",
          "type": "uint256"
        },
        {
          "internalType": "uint256",
          "name": "nullifier",
          "type": "uint256"
        },
        {
          "internalType": "uint256",
          "name": "timestamp",
          "type": "uint256"
        },
        {
          "internalType": "uint256",
          "name": "signal",
          "type": "uint256"
        },
        {
          "internalType": "uint256[4]",
          "name": "revealArray",
          "type": "uint256[4]"
        },
        {
          "internalType": "uint256[8]",
          "name": "groth16Proof",
          "type": "uint256[8]"
        }
      ],
      "name": "issueCredential",
      "outputs": [],
      "stateMutability": "nonpayable",
      "type": "function"
    },
    {
      "inputs": [],
      "name": "owner",
      "outputs": [
        {
          "internalType": "address",
          "name": "",
          "type": "address"
        }
      ],
      "stateMutability": "view",
      "type": "function"
    },
    {
      "inputs": [],
      "name": "pendingOwner",
      "outputs": [
        {
          "internalType": "address",
          "name": "",
          "type": "address"
        }
      ],
      "stateMutability": "view",
      "type": "function"
    },
    {
      "inputs": [],
      "name": "renounceOwnership",
      "outputs": [],
      "stateMutability": "nonpayable",
      "type": "function"
    },
    {
      "inputs": [
        {
          "internalType": "uint64",
          "name": "_revocationNonce",
          "type": "uint64"
        }
      ],
      "name": "revokeClaimAndTransit",
      "outputs": [],
      "stateMutability": "nonpayable",
      "type": "function"
    },
    {
      "inputs": [
        {
          "internalType": "bytes4",
          "name": "interfaceId",
          "type": "bytes4"
        }
      ],
      "name": "supportsInterface",
      "outputs": [
        {
          "internalType": "bool",
          "name": "",
          "type": "bool"
        }
      ],
      "stateMutability": "view",
      "type": "function"
    },
    {
      "inputs": [
        {
          "internalType": "address",
          "name": "newOwner",
          "type": "address"
        }
      ],
      "name": "transferOwnership",
      "outputs": [],
      "stateMutability": "nonpayable",
      "type": "function"
    }
  ],
  "bytecode": "0x608060405234801561001057600080fd5b50615427806100206000396000f3fe608060405234801561001057600080fd5b506004361061023c5760003560e01c8063715018a61161013b578063c4d66de8116100b8578063e30c39781161007c578063e30c397814610734578063f2a8ed5a14610752578063f2fde38b1461076e578063f84c7c1e1461078a578063ffa1ad74146107a85761023c565b8063c4d66de81461068e578063c6365a3b146106aa578063da68a0b1146106c8578063de353972146106e6578063e26ecb0b146107045761023c565b8063af936504116100ff578063af936504146105b1578063b37feda4146105cd578063b57a40cb146105fe578063b8db68711461062e578063c1e327331461065e5761023c565b8063715018a61461053157806379ba50971461053b5780638da5cb5b146105455780639674cfa414610563578063aad72921146105815761023c565b8063310d0d5b116101c9578063443d75341161018d578063443d753414610478578063485cc955146104a9578063523b8136146104c55780635d1ca631146104e3578063668d0bd4146105015761023c565b8063310d0d5b146103bc57806337c1d9ff146103ec5780633d59ec601461041e5780633df432fc1461043c5780633f0c66481461045a5761023c565b80630dbffbcd116102105780630dbffbcd146102de578063110c96a7146102fc5780631ec7ea8f1461032c578063264850631461035c5780632d5c4f251461038c5761023c565b806233058d1461024157806301c85c771461027257806301ffc9a71461029057806309cb9b62146102c0575b600080fd5b61025b60048036038101906102569190613306565b6107c6565b60405161026992919061351b565b60405180910390f35b61027a61086a565b604051610287919061355a565b60405180910390f35b6102aa60048036038101906102a591906135cd565b6108f5565b6040516102b79190613609565b60405180910390f35b6102c861096f565b6040516102d591906136b4565b60405180910390f35b6102e66109ac565b6040516102f39190613717565b60405180910390f35b6103166004803603810190610311919061375e565b6109d0565b60405161032391906138e0565b60405180910390f35b61034660048036038101906103419190613902565b6109ff565b6040516103539190613609565b60405180910390f35b61037660048036038101906103719190613306565b610a18565b604051610383919061392f565b60405180910390f35b6103a660048036038101906103a19190613951565b610ab2565b6040516103b3919061392f565b60405180910390f35b6103d660048036038101906103d19190613951565b610b4f565b6040516103e3919061392f565b60405180910390f35b61040660048036038101906104019190613951565b610bec565b60405161041593929190613dc4565b60405180910390f35b61042661105f565b604051610433919061355a565b60405180910390f35b610444611075565b604051610451919061355a565b60405180910390f35b610462611100565b60405161046f919061355a565b60405180910390f35b610492600480360381019061048d9190613902565b611109565b6040516104a092919061351b565b60405180910390f35b6104c360048036038101906104be9190613e37565b6111ad565b005b6104cd61141c565b6040516104da919061355a565b60405180910390f35b6104eb611435565b6040516104f8919061355a565b60405180910390f35b61051b60048036038101906105169190613902565b61144b565b6040516105289190613ee6565b60405180910390f35b6105396114c5565b005b6105436114d9565b005b61054d611568565b60405161055a9190613717565b60405180910390f35b61056b6115a0565b604051610578919061355a565b60405180910390f35b61059b60048036038101906105969190613f08565b6115b9565b6040516105a891906138e0565b60405180910390f35b6105cb60048036038101906105c69190613fa4565b6117e5565b005b6105e760048036038101906105e29190613902565b612302565b6040516105f592919061351b565b60405180910390f35b61061860048036038101906106139190613902565b6123a6565b604051610625919061392f565b60405180910390f35b61064860048036038101906106439190613902565b61243f565b604051610655919061408a565b60405180910390f35b61067860048036038101906106739190613902565b6124d4565b604051610685919061392f565b60405180910390f35b6106a860048036038101906106a391906140a5565b61256e565b005b6106b26125f1565b6040516106bf919061355a565b60405180910390f35b6106d061260a565b6040516106dd919061355a565b60405180910390f35b6106ee612695565b6040516106fb91906136b4565b60405180910390f35b61071e600480360381019061071991906140d2565b6126ce565b60405161072b919061392f565b60405180910390f35b61073c61276b565b6040516107499190613717565b60405180910390f35b61076c60048036038101906107679190613306565b6127a3565b005b610788600480360381019061078391906140a5565b612896565b005b610792612952565b60405161079f9190613609565b60405180910390f35b6107b0612975565b6040516107bd91906136b4565b60405180910390f35b6107ce613089565b6107d66130d2565b6107de6129ae565b60000173__$068aad146bf104111ba65c4a1de2cd0e23$__63f8b802689091856040518363ffffffff1660e01b815260040161081b929190614128565b600060405180830381865af4158015610838573d6000803e3d6000fd5b505050506040513d6000823e3d601f19601f82011682018060405250810190610861919061443d565b91509150915091565b60006108746129ae565b60000173__$068aad146bf104111ba65c4a1de2cd0e23$__63765c2c6190916040518263ffffffff1660e01b81526004016108af9190614499565b602060405180830381865af41580156108cc573d6000803e3d6000fd5b505050506040513d601f19601f820116820180604052508101906108f091906144b4565b905090565b60007f58874949000000000000000000000000000000000000000000000000000000007bffffffffffffffffffffffffffffffffffffffffffffffffffffffff1916827bffffffffffffffffffffffffffffffffffffffffffffffffffffffff191614806109685750610967826129d6565b5b9050919050565b60606040518060400160405280600581526020017f302e302e31000000000000000000000000000000000000000000000000000000815250905090565b60008054906101000a900473ffffffffffffffffffffffffffffffffffffffff1681565b6109d86130fa565b60006109e26129ae565b6000016001015490506109f68482856115b9565b91505092915050565b6000612a3042610a0f9190614510565b82119050919050565b610a20613089565b610a286129ae565b60000173__$068aad146bf104111ba65c4a1de2cd0e23$__637d0aba4f9091846040518363ffffffff1660e01b8152600401610a65929190614128565b600060405180830381865af4158015610a82573d6000803e3d6000fd5b505050506040513d6000823e3d601f19601f82011682018060405250810190610aab9190614544565b9050919050565b610aba613089565b610ac26129ae565b60000173__$068aad146bf104111ba65c4a1de2cd0e23$__63d55da6a3909185856040518463ffffffff1660e01b8152600401610b019392919061459c565b600060405180830381865af4158015610b1e573d6000803e3d6000fd5b505050506040513d6000823e3d601f19601f82011682018060405250810190610b479190614544565b905092915050565b610b57613089565b610b5f6129ae565b60000173__$068aad146bf104111ba65c4a1de2cd0e23$__63d5818b8e909185856040518463ffffffff1660e01b8152600401610b9e9392919061459c565b600060405180830381865af4158015610bbb573d6000803e3d6000fd5b505050506040513d6000823e3d601f19601f82011682018060405250810190610be49190614544565b905092915050565b610bf4613120565b610bfc61316c565b60606000610c08612a50565b90506000600267ffffffffffffffff811115610c2757610c26614156565b5b604051908082528060200260200182016040528015610c5a57816020015b6060815260200190600190039081610c455790505b5090506040518060800160405280606081526020016153926060913981600081518110610c8a57610c896145d3565b5b60200260200101819052506040518060600160405280603881526020016152ed6038913981600181518110610cc257610cc16145d3565b5b60200260200101819052506000826002016000888152602001908152602001600020604051806060016040529081600082015481526020016001820160009054906101000a900467ffffffffffffffff1667ffffffffffffffff1667ffffffffffffffff16815260200160028201600880602002604051908101604052809291908260088015610d67576020028201915b815481526020019060010190808311610d53575b505050505081525050905060006040518060c00160405280836000015181526020018481526020016040518060400160405280601581526020017f416e6f6e4161646861617243726564656e7469616c00000000000000000000008152508152602001836020015167ffffffffffffffff16815260200160405180604001604052806040518060800160405280605e815260200161528f605e913981526020016040518060400160405280600e81526020017f4a736f6e536368656d6132303233000000000000000000000000000000000000815250815250815260200160405180604001604052806040518060a00160405280606d8152602001615325606d913981526020016040518060400160405280601981526020017f4964656e334261736963446973706c61794d6574686f6456310000000000000081525081525081525090508082604001518560040160008b815260200190815260200160002080805480602002602001604051908101604052809291908181526020016000905b828210156110485783829060005260206000209060030201604051806060016040529081600082018054610f1b90614631565b80601f0160208091040260200160405190810160405280929190818152602001828054610f4790614631565b8015610f945780601f10610f6957610100808354040283529160200191610f94565b820191906000526020600020905b815481529060010190602001808311610f7757829003601f168201915b5050505050815260200160018201548152602001600282018054610fb790614631565b80601f0160208091040260200160405190810160405280929190818152602001828054610fe390614631565b80156110305780601f1061100557610100808354040283529160200191611030565b820191906000526020600020905b81548152906001019060200180831161101357829003601f168201915b50505050508152505081526020019060010190610ee8565b505050509050965096509650505050509250925092565b60006110696129ae565b60000160010154905090565b600061107f6129ae565b60000173__$068aad146bf104111ba65c4a1de2cd0e23$__636e2fe66c90916040518263ffffffff1660e01b81526004016110ba9190614499565b602060405180830381865af41580156110d7573d6000803e3d6000fd5b505050506040513d601f19601f820116820180604052508101906110fb91906144b4565b905090565b60006028905090565b611111613089565b6111196130d2565b6111216129ae565b60000173__$068aad146bf104111ba65c4a1de2cd0e23$__63a3018d799091856040518363ffffffff1660e01b815260040161115e929190614662565b600060405180830381865af415801561117b573d6000803e3d6000fd5b505050506040513d6000823e3d601f19601f820116820180604052508101906111a4919061443d565b91509150915091565b60006111b7612a78565b905060008160000160089054906101000a900460ff1615905060008260000160009054906101000a900467ffffffffffffffff1690506000808267ffffffffffffffff161480156112055750825b9050600060018367ffffffffffffffff1614801561123a575060003073ffffffffffffffffffffffffffffffffffffffff163b145b905081158015611248575080155b1561127f576040517ff92ee8a900000000000000000000000000000000000000000000000000000000815260040160405180910390fd5b60018560000160006101000a81548167ffffffffffffffff021916908367ffffffffffffffff16021790555083156112cf5760018560000160086101000a81548160ff0219169083151502179055505b600073ffffffffffffffffffffffffffffffffffffffff1660008054906101000a900473ffffffffffffffffffffffffffffffffffffffff1673ffffffffffffffffffffffffffffffffffffffff161461135e576040517f08c379a0000000000000000000000000000000000000000000000000000000008152600401611355906146d7565b60405180910390fd5b856000806101000a81548173ffffffffffffffffffffffffffffffffffffffff021916908373ffffffffffffffffffffffffffffffffffffffff1602179055506113a78761256e565b6113b76113b2612aa0565b612aa8565b83156114135760008560000160086101000a81548160ff0219169083151502179055507fc7f505b2f371ae2175ee4913f4499e1f2633a7b5936321eed1cdaeb6115181d2600160405161140a919061473c565b60405180910390a15b50505050505050565b60006114266129ae565b600001609a0160000154905090565b600061143f6129ae565b60000160000154905090565b60606000611457612a50565b90508060010160008481526020019081526020016000208054806020026020016040519081016040528092919081815260200182805480156114b857602002820191906000526020600020905b8154815260200190600101908083116114a4575b5050505050915050919050565b6114cd612abc565b6114d76000612b43565b565b60006114e3612aa0565b90508073ffffffffffffffffffffffffffffffffffffffff1661150461276b565b73ffffffffffffffffffffffffffffffffffffffff161461155c57806040517f118cdaa70000000000000000000000000000000000000000000000000000000081526004016115539190613717565b60405180910390fd5b61156581612b43565b50565b600080611573612b83565b90508060000160009054906101000a900473ffffffffffffffffffffffffffffffffffffffff1691505090565b60006115aa6129ae565b600001609a0160010154905090565b6115c16130fa565b6115c96129ae565b600001600001548414611611576040517f08c379a0000000000000000000000000000000000000000000000000000000008152600401611608906147a3565b60405180910390fd5b600061161b6129ae565b60000173__$068aad146bf104111ba65c4a1de2cd0e23$__630b1a9cd39091866040518363ffffffff1660e01b8152600401611658929190614662565b606060405180830381865af4158015611675573d6000803e3d6000fd5b505050506040513d601f19601f820116820180604052508101906116999190614827565b90506000604051806080016040528086815260200183600001518152602001836020015181526020018360400151815250905060006116d66129ae565b60000173__$068aad146bf104111ba65c4a1de2cd0e23$__6316579a3690918786602001516040518463ffffffff1660e01b815260040161171993929190614854565b600060405180830381865af4158015611736573d6000803e3d6000fd5b505050506040513d6000823e3d601f19601f8201168201806040525081019061175f9190614544565b90506000604051806101000160405280836000015181526020018360200151151581526020018360400151815260200183606001518152602001836080015181526020018360a00151151581526020018360c0015181526020018360e0015181525090506040518060400160405280848152602001828152509450505050509392505050565b60006117ef612a50565b90506000816003016000888152602001908152602001600020549050600081146119af5760008260010160008b815260200190815260200160002080548060200260200160405190810160405280929190818152602001828054801561187457602002820191906000526020600020905b815481526020019060010190808311611860575b505050505090506000816001835161188c9190614510565b8151811061189d5761189c6145d3565b5b602002602001015190506000846002016000838152602001908152602001600020604051806060016040529081600082015481526020016001820160009054906101000a900467ffffffffffffffff1667ffffffffffffffff1667ffffffffffffffff16815260200160028201600880602002604051908101604052809291908260088015611941576020028201915b81548152602001906001019080831161192d575b50505050508152505090508060400151600460088110611964576119636145d3565b5b60200201514210156119ab576040517f08c379a00000000000000000000000000000000000000000000000000000000081526004016119a2906148fd565b60405180910390fd5b5050505b60008054906101000a900473ffffffffffffffffffffffffffffffffffffffff1673ffffffffffffffffffffffffffffffffffffffff166350de0e578989898989896040518763ffffffff1660e01b8152600401611a1296959493929190614947565b602060405180830381865afa158015611a2f573d6000803e3d6000fd5b505050506040513d601f19601f82011682018060405250810190611a5391906149aa565b611a92576040517f08c379a0000000000000000000000000000000000000000000000000000000008152600401611a8990614a6f565b60405180910390fd5b6000611aab62278d0042611aa69190614a8f565b612bab565b90506000604051806101c001604052806d01a53a1b5c73b6983e7520f2e0208152602001600160ff168152602001600115158152602001600015158152602001600060ff168152602001600063ffffffff1681526020018c81526020018560000160009054906101000a900467ffffffffffffffff1667ffffffffffffffff1681526020018367ffffffffffffffff1681526020016000815260200187600060048110611b5b57611b5a6145d3565b5b6020020135815260200187600160048110611b7957611b786145d3565b5b6020020135815260200187600260048110611b9757611b966145d3565b5b6020020135815260200187600360048110611bb557611bb46145d3565b5b60200201358152509050600073__$d457d7a9d70b3416d81729f95b82443f59$__6375e8efe0836040518263ffffffff1660e01b8152600401611bf89190614c4b565b61010060405180830381865af4158015611c16573d6000803e3d6000fd5b505050506040513d601f19601f82011682018060405250810190611c3a9190614d18565b9050600073__$2650005024f117ed9b6c57ec1bf6374b69$__63248f6677604051806080016040528085600060088110611c7757611c766145d3565b5b6020020151815260200185600160088110611c9557611c946145d3565b5b6020020151815260200185600260088110611cb357611cb26145d3565b5b6020020151815260200185600360088110611cd157611cd06145d3565b5b60200201518152506040518263ffffffff1660e01b8152600401611cf59190614de2565b602060405180830381865af4158015611d12573d6000803e3d6000fd5b505050506040513d601f19601f82011682018060405250810190611d3691906144b4565b9050600073__$2650005024f117ed9b6c57ec1bf6374b69$__63248f6677604051806080016040528086600460088110611d7357611d726145d3565b5b6020020151815260200186600560088110611d9157611d906145d3565b5b6020020151815260200186600660088110611daf57611dae6145d3565b5b6020020151815260200186600760088110611dcd57611dcc6145d3565b5b60200201518152506040518263ffffffff1660e01b8152600401611df19190614de2565b602060405180830381865af4158015611e0e573d6000803e3d6000fd5b505050506040513d601f19601f82011682018060405250810190611e3291906144b4565b9050600060405180606001604052808960000160009054906101000a900467ffffffffffffffff1667ffffffffffffffff168152602001611e7242612bab565b67ffffffffffffffff1681526020018581525090508760040160008960000160009054906101000a900467ffffffffffffffff1667ffffffffffffffff16815260200190815260200160002060405180606001604052806040518060400160405280600a81526020017f61676541626f766531380000000000000000000000000000000000000000000081525081526020018c600060048110611f1857611f176145d3565b5b602002013581526020016040518060200160405280600081525081525090806001815401808255809150506001900390600052602060002090600302016000909190919091506000820151816000019081611f739190614f9f565b50602082015181600101556040820151816002019081611f9391906150cc565b5050508760040160008960000160009054906101000a900467ffffffffffffffff1667ffffffffffffffff16815260200190815260200160002060405180606001604052806040518060400160405280600681526020017f67656e646572000000000000000000000000000000000000000000000000000081525081526020018c600160048110612027576120266145d3565b5b6020020135815260200160405180602001604052806000815250815250908060018154018082558091505060019003906000526020600020906003020160009091909190915060008201518160000190816120829190614f9f565b506020820151816001015560408201518160020190816120a291906150cc565b5050508760040160008960000160009054906101000a900467ffffffffffffffff1667ffffffffffffffff16815260200190815260200160002060405180606001604052806040518060400160405280600781526020017f70696e636f64650000000000000000000000000000000000000000000000000081525081526020018c600260048110612136576121356145d3565b5b6020020135815260200160405180602001604052806000815250815250908060018154018082558091505060019003906000526020600020906003020160009091909190915060008201518160000190816121919190614f9f565b506020820151816001015560408201518160020190816121b191906150cc565b5050508760040160008960000160009054906101000a900467ffffffffffffffff1667ffffffffffffffff16815260200190815260200160002060405180606001604052806040518060400160405280600581526020017f737461746500000000000000000000000000000000000000000000000000000081525081526020018c600360048110612245576122446145d3565b5b6020020135815260200160405180602001604052806000815250815250908060018154018082558091505060019003906000526020600020906003020160009091909190915060008201518160000190816122a09190614f9f565b506020820151816001015560408201518160020190816122c091906150cc565b5050508e8860030160008f8152602001908152602001600020819055506122e78383612c02565b6122f18f82612cf0565b505050505050505050505050505050565b61230a613089565b6123126130d2565b61231a6129ae565b60000173__$068aad146bf104111ba65c4a1de2cd0e23$__63d5a3b14e9091856040518363ffffffff1660e01b8152600401612357929190614662565b600060405180830381865af4158015612374573d6000803e3d6000fd5b505050506040513d6000823e3d601f19601f8201168201806040525081019061239d919061443d565b91509150915091565b6123ae613089565b6123b66129ae565b60000173__$068aad146bf104111ba65c4a1de2cd0e23$__62cf08909091846040518363ffffffff1660e01b81526004016123f2929190614662565b600060405180830381865af415801561240f573d6000803e3d6000fd5b505050506040513d6000823e3d601f19601f820116820180604052508101906124389190614544565b9050919050565b61244761318f565b61244f6129ae565b60000173__$068aad146bf104111ba65c4a1de2cd0e23$__630b1a9cd39091846040518363ffffffff1660e01b815260040161248c929190614662565b606060405180830381865af41580156124a9573d6000803e3d6000fd5b505050506040513d601f19601f820116820180604052508101906124cd9190614827565b9050919050565b6124dc613089565b6124e46129ae565b60000173__$068aad146bf104111ba65c4a1de2cd0e23$__6397ac53919091846040518363ffffffff1660e01b8152600401612521929190614662565b600060405180830381865af415801561253e573d6000803e3d6000fd5b505050506040513d6000823e3d601f19601f820116820180604052508101906125679190614544565b9050919050565b6125766129ae565b60000173__$068aad146bf104111ba65c4a1de2cd0e23$__63d3cd4e9b9091833061259f611100565b6040518563ffffffff1660e01b81526004016125be94939291906151ad565b60006040518083038186803b1580156125d657600080fd5b505af41580156125ea573d6000803e3d6000fd5b5050505050565b60006125fb6129ae565b600001609a0160020154905090565b60006126146129ae565b60000173__$068aad146bf104111ba65c4a1de2cd0e23$__631e75e7f390916040518263ffffffff1660e01b815260040161264f9190614499565b602060405180830381865af415801561266c573d6000803e3d6000fd5b505050506040513d601f19601f8201168201806040525081019061269091906144b4565b905090565b6040518060400160405280600581526020017f302e302e3100000000000000000000000000000000000000000000000000000081525081565b6126d6613089565b6126de6129ae565b60000173__$068aad146bf104111ba65c4a1de2cd0e23$__6316579a36909185856040518463ffffffff1660e01b815260040161271d93929190614854565b600060405180830381865af415801561273a573d6000803e3d6000fd5b505050506040513d6000823e3d601f19601f820116820180604052508101906127639190614544565b905092915050565b600080612776612e3a565b90508060000160009054906101000a900473ffffffffffffffffffffffffffffffffffffffff1691505090565b6127ab612abc565b6127b36129ae565b60000173__$068aad146bf104111ba65c4a1de2cd0e23$__638ad7195d9091836040518363ffffffff1660e01b81526004016127f0929190614128565b60006040518083038186803b15801561280857600080fd5b505af415801561281c573d6000803e3d6000fd5b505050506128286129ae565b60000173__$068aad146bf104111ba65c4a1de2cd0e23$__632eb747d290916040518263ffffffff1660e01b81526004016128639190614499565b60006040518083038186803b15801561287b57600080fd5b505af415801561288f573d6000803e3d6000fd5b5050505050565b61289e612abc565b60006128a8612e3a565b9050818160000160006101000a81548173ffffffffffffffffffffffffffffffffffffffff021916908373ffffffffffffffffffffffffffffffffffffffff1602179055508173ffffffffffffffffffffffffffffffffffffffff1661290c611568565b73ffffffffffffffffffffffffffffffffffffffff167f38d16b8cac22d99fc7c124b9cd0de2d3fa1faef420bfe791d8c362d765e2270060405160405180910390a35050565b600061295c6129ae565b60000160020160009054906101000a900460ff16905090565b6040518060400160405280600581526020017f312e302e3000000000000000000000000000000000000000000000000000000081525081565b60007f3018a310c36c4f8228f09bf3b1822685cf0971daa8265a58ca807c4a4daba400905090565b60007f5d1ca631000000000000000000000000000000000000000000000000000000007bffffffffffffffffffffffffffffffffffffffffffffffffffffffff1916827bffffffffffffffffffffffffffffffffffffffffffffffffffffffff19161480612a495750612a4882612e62565b5b9050919050565b60007f33009af875187a3bcbd4b4a66e5f861007d091075539980f2ae469e83db83e00905090565b60007ff0c57e16840df040f15088dc2f81fe391c3923bec73e23a9662efc9c229c6a00905090565b600033905090565b612ab0612ecc565b612ab981612f0c565b50565b612ac4612aa0565b73ffffffffffffffffffffffffffffffffffffffff16612ae2611568565b73ffffffffffffffffffffffffffffffffffffffff1614612b4157612b05612aa0565b6040517f118cdaa7000000000000000000000000000000000000000000000000000000008152600401612b389190613717565b60405180910390fd5b565b6000612b4d612e3a565b90508060000160006101000a81549073ffffffffffffffffffffffffffffffffffffffff0219169055612b7f82612f92565b5050565b60007f9016d09d72d40fdae2fd8ceac6b6234c7706214fd39c1cd1e609a0528c199300905090565b600067ffffffffffffffff8016821115612bfa576040517f08c379a0000000000000000000000000000000000000000000000000000000008152600401612bf19061523e565b60405180910390fd5b819050919050565b612c0a6129ae565b60000173__$068aad146bf104111ba65c4a1de2cd0e23$__6306fb1575909184846040518463ffffffff1660e01b8152600401612c499392919061459c565b60006040518083038186803b158015612c6157600080fd5b505af4158015612c75573d6000803e3d6000fd5b50505050612c816129ae565b60000173__$068aad146bf104111ba65c4a1de2cd0e23$__632eb747d290916040518263ffffffff1660e01b8152600401612cbc9190614499565b60006040518083038186803b158015612cd457600080fd5b505af4158015612ce8573d6000803e3d6000fd5b505050505050565b6000612cfa612a50565b90508060010160008481526020019081526020016000208160000160009054906101000a900467ffffffffffffffff16908060018154018082558091505060019003906000526020600020016000909167ffffffffffffffff16909190915055818160020160008360000160009054906101000a900467ffffffffffffffff1667ffffffffffffffff1681526020019081526020016000206000820151816000015560208201518160010160006101000a81548167ffffffffffffffff021916908367ffffffffffffffff160217905550604082015181600201906008612de29291906131b0565b5090505080600001600081819054906101000a900467ffffffffffffffff1680929190612e0e9061525e565b91906101000a81548167ffffffffffffffff021916908367ffffffffffffffff16021790555050505050565b60007f237e158222e3e6968b72b9db0d8043aacf074ad9f650f0d1606b4d82ee432c00905090565b60007f01ffc9a7000000000000000000000000000000000000000000000000000000007bffffffffffffffffffffffffffffffffffffffffffffffffffffffff1916827bffffffffffffffffffffffffffffffffffffffffffffffffffffffff1916149050919050565b612ed4613069565b612f0a576040517fd7e6bcf800000000000000000000000000000000000000000000000000000000815260040160405180910390fd5b565b612f14612ecc565b600073ffffffffffffffffffffffffffffffffffffffff168173ffffffffffffffffffffffffffffffffffffffff1603612f865760006040517f1e4fbdf7000000000000000000000000000000000000000000000000000000008152600401612f7d9190613717565b60405180910390fd5b612f8f81612b43565b50565b6000612f9c612b83565b905060008160000160009054906101000a900473ffffffffffffffffffffffffffffffffffffffff169050828260000160006101000a81548173ffffffffffffffffffffffffffffffffffffffff021916908373ffffffffffffffffffffffffffffffffffffffff1602179055508273ffffffffffffffffffffffffffffffffffffffff168173ffffffffffffffffffffffffffffffffffffffff167f8be0079c531659141344cd1fd0a4f28419497f9722a3daafe3b4186f6b6457e060405160405180910390a3505050565b6000613073612a78565b60000160089054906101000a900460ff16905090565b6040518061010001604052806000815260200160001515815260200160608152602001600081526020016000815260200160001515815260200160008152602001600081525090565b6040518060800160405280600081526020016000815260200160008152602001600081525090565b604051806040016040528061310d6131f0565b815260200161311a613218565b81525090565b6040518060c00160405280600081526020016060815260200160608152602001600067ffffffffffffffff168152602001613159613261565b815260200161316661327b565b81525090565b604051806101000160405280600890602082028036833780820191505090505090565b60405180606001604052806000815260200160008152602001600081525090565b82600881019282156131df579160200282015b828111156131de5782518255916020019190600101906131c3565b5b5090506131ec9190613295565b5090565b6040518060800160405280600081526020016000815260200160008152602001600081525090565b6040518061010001604052806000815260200160001515815260200160608152602001600081526020016000815260200160001515815260200160008152602001600081525090565b604051806040016040528060608152602001606081525090565b604051806040016040528060608152602001606081525090565b5b808211156132ae576000816000905550600101613296565b5090565b6000604051905090565b600080fd5b600080fd5b600067ffffffffffffffff82169050919050565b6132e3816132c6565b81146132ee57600080fd5b50565b600081359050613300816132da565b92915050565b60006020828403121561331c5761331b6132bc565b5b600061332a848285016132f1565b91505092915050565b6000819050919050565b61334681613333565b82525050565b60008115159050919050565b6133618161334c565b82525050565b600081519050919050565b600082825260208201905092915050565b6000819050602082019050919050565b600061339f838361333d565b60208301905092915050565b6000602082019050919050565b60006133c382613367565b6133cd8185613372565b93506133d883613383565b8060005b838110156134095781516133f08882613393565b97506133fb836133ab565b9250506001810190506133dc565b5085935050505092915050565b60006101008301600083015161342f600086018261333d565b5060208301516134426020860182613358565b506040830151848203604086015261345a82826133b8565b915050606083015161346f606086018261333d565b506080830151613482608086018261333d565b5060a083015161349560a0860182613358565b5060c08301516134a860c086018261333d565b5060e08301516134bb60e086018261333d565b508091505092915050565b6080820160008201516134dc600085018261333d565b5060208201516134ef602085018261333d565b506040820151613502604085018261333d565b506060820151613515606085018261333d565b50505050565b600060a08201905081810360008301526135358185613416565b905061354460208301846134c6565b9392505050565b61355481613333565b82525050565b600060208201905061356f600083018461354b565b92915050565b60007fffffffff0000000000000000000000000000000000000000000000000000000082169050919050565b6135aa81613575565b81146135b557600080fd5b50565b6000813590506135c7816135a1565b92915050565b6000602082840312156135e3576135e26132bc565b5b60006135f1848285016135b8565b91505092915050565b6136038161334c565b82525050565b600060208201905061361e60008301846135fa565b92915050565b600081519050919050565b600082825260208201905092915050565b60005b8381101561365e578082015181840152602081019050613643565b60008484015250505050565b6000601f19601f8301169050919050565b600061368682613624565b613690818561362f565b93506136a0818560208601613640565b6136a98161366a565b840191505092915050565b600060208201905081810360008301526136ce818461367b565b905092915050565b600073ffffffffffffffffffffffffffffffffffffffff82169050919050565b6000613701826136d6565b9050919050565b613711816136f6565b82525050565b600060208201905061372c6000830184613708565b92915050565b61373b81613333565b811461374657600080fd5b50565b60008135905061375881613732565b92915050565b60008060408385031215613775576137746132bc565b5b600061378385828601613749565b9250506020613794858286016132f1565b9150509250929050565b6080820160008201516137b4600085018261333d565b5060208201516137c7602085018261333d565b5060408201516137da604085018261333d565b5060608201516137ed606085018261333d565b50505050565b60006101008301600083015161380c600086018261333d565b50602083015161381f6020860182613358565b506040830151848203604086015261383782826133b8565b915050606083015161384c606086018261333d565b50608083015161385f608086018261333d565b5060a083015161387260a0860182613358565b5060c083015161388560c086018261333d565b5060e083015161389860e086018261333d565b508091505092915050565b600060a0830160008301516138bb600086018261379e565b50602083015184820360808601526138d382826137f3565b9150508091505092915050565b600060208201905081810360008301526138fa81846138a3565b905092915050565b600060208284031215613918576139176132bc565b5b600061392684828501613749565b91505092915050565b600060208201905081810360008301526139498184613416565b905092915050565b60008060408385031215613968576139676132bc565b5b600061397685828601613749565b925050602061398785828601613749565b9150509250929050565b600081519050919050565b600082825260208201905092915050565b6000819050602082019050919050565b600082825260208201905092915050565b60006139d982613624565b6139e381856139bd565b93506139f3818560208601613640565b6139fc8161366a565b840191505092915050565b6000613a1383836139ce565b905092915050565b6000602082019050919050565b6000613a3382613991565b613a3d818561399c565b935083602082028501613a4f856139ad565b8060005b85811015613a8b5784840389528151613a6c8582613a07565b9450613a7783613a1b565b925060208a01995050600181019050613a53565b50829750879550505050505092915050565b613aa6816132c6565b82525050565b60006040830160008301518482036000860152613ac982826139ce565b91505060208301518482036020860152613ae382826139ce565b9150508091505092915050565b60006040830160008301518482036000860152613b0d82826139ce565b91505060208301518482036020860152613b2782826139ce565b9150508091505092915050565b600060c083016000830151613b4c600086018261333d565b5060208301518482036020860152613b648282613a28565b91505060408301518482036040860152613b7e82826139ce565b9150506060830151613b936060860182613a9d565b5060808301518482036080860152613bab8282613aac565b91505060a083015184820360a0860152613bc58282613af0565b9150508091505092915050565b600060089050919050565b600081905092915050565b6000819050919050565b6000602082019050919050565b613c0881613bd2565b613c128184613bdd565b9250613c1d82613be8565b8060005b83811015613c4e578151613c358782613393565b9650613c4083613bf2565b925050600181019050613c21565b505050505050565b600081519050919050565b600082825260208201905092915050565b6000819050602082019050919050565b600081519050919050565b600082825260208201905092915050565b6000613ca982613c82565b613cb38185613c8d565b9350613cc3818560208601613640565b613ccc8161366a565b840191505092915050565b60006060830160008301518482036000860152613cf482826139ce565b9150506020830151613d09602086018261333d565b5060408301518482036040860152613d218282613c9e565b9150508091505092915050565b6000613d3a8383613cd7565b905092915050565b6000602082019050919050565b6000613d5a82613c56565b613d648185613c61565b935083602082028501613d7685613c72565b8060005b85811015613db25784840389528151613d938582613d2e565b9450613d9e83613d42565b925060208a01995050600181019050613d7a565b50829750879550505050505092915050565b6000610140820190508181036000830152613ddf8186613b34565b9050613dee6020830185613bff565b818103610120830152613e018184613d4f565b9050949350505050565b613e14816136f6565b8114613e1f57600080fd5b50565b600081359050613e3181613e0b565b92915050565b60008060408385031215613e4e57613e4d6132bc565b5b6000613e5c85828601613e22565b9250506020613e6d85828601613e22565b9150509250929050565b600082825260208201905092915050565b6000613e9382613367565b613e9d8185613e77565b9350613ea883613383565b8060005b83811015613ed9578151613ec08882613393565b9750613ecb836133ab565b925050600181019050613eac565b5085935050505092915050565b60006020820190508181036000830152613f008184613e88565b905092915050565b600080600060608486031215613f2157613f206132bc565b5b6000613f2f86828701613749565b9350506020613f4086828701613749565b9250506040613f51868287016132f1565b9150509250925092565b600080fd5b600081905082602060040282011115613f7c57613f7b613f5b565b5b92915050565b600081905082602060080282011115613f9e57613f9d613f5b565b5b92915050565b6000806000806000806000610220888a031215613fc457613fc36132bc565b5b6000613fd28a828b01613749565b9750506020613fe38a828b01613749565b9650506040613ff48a828b01613749565b95505060606140058a828b01613749565b94505060806140168a828b01613749565b93505060a06140278a828b01613f60565b9250506101206140398a828b01613f82565b91505092959891949750929550565b60608201600082015161405e600085018261333d565b506020820151614071602085018261333d565b506040820151614084604085018261333d565b50505050565b600060608201905061409f6000830184614048565b92915050565b6000602082840312156140bb576140ba6132bc565b5b60006140c984828501613e22565b91505092915050565b600080604083850312156140e9576140e86132bc565b5b60006140f7858286016132f1565b925050602061410885828601613749565b9150509250929050565b8082525050565b614122816132c6565b82525050565b600060408201905061413d6000830185614112565b61414a6020830184614119565b9392505050565b600080fd5b7f4e487b7100000000000000000000000000000000000000000000000000000000600052604160045260246000fd5b61418e8261366a565b810181811067ffffffffffffffff821117156141ad576141ac614156565b5b80604052505050565b60006141c06132b2565b90506141cc8282614185565b919050565b600080fd5b6000815190506141e581613732565b92915050565b6141f48161334c565b81146141ff57600080fd5b50565b600081519050614211816141eb565b92915050565b600080fd5b600067ffffffffffffffff82111561423757614236614156565b5b602082029050602081019050919050565b600061425b6142568461421c565b6141b6565b9050808382526020820190506020840283018581111561427e5761427d613f5b565b5b835b818110156142a7578061429388826141d6565b845260208401935050602081019050614280565b5050509392505050565b600082601f8301126142c6576142c5614217565b5b81516142d6848260208601614248565b91505092915050565b600061010082840312156142f6576142f5614151565b5b6143016101006141b6565b90506000614311848285016141d6565b600083015250602061432584828501614202565b602083015250604082015167ffffffffffffffff811115614349576143486141d1565b5b614355848285016142b1565b6040830152506060614369848285016141d6565b606083015250608061437d848285016141d6565b60808301525060a061439184828501614202565b60a08301525060c06143a5848285016141d6565b60c08301525060e06143b9848285016141d6565b60e08301525092915050565b6000608082840312156143db576143da614151565b5b6143e560806141b6565b905060006143f5848285016141d6565b6000830152506020614409848285016141d6565b602083015250604061441d848285016141d6565b6040830152506060614431848285016141d6565b60608301525092915050565b60008060a08385031215614454576144536132bc565b5b600083015167ffffffffffffffff811115614472576144716132c1565b5b61447e858286016142df565b925050602061448f858286016143c5565b9150509250929050565b60006020820190506144ae6000830184614112565b92915050565b6000602082840312156144ca576144c96132bc565b5b60006144d8848285016141d6565b91505092915050565b7f4e487b7100000000000000000000000000000000000000000000000000000000600052601160045260246000fd5b600061451b82613333565b915061452683613333565b925082820390508181111561453e5761453d6144e1565b5b92915050565b60006020828403121561455a576145596132bc565b5b600082015167ffffffffffffffff811115614578576145776132c1565b5b614584848285016142df565b91505092915050565b61459681613333565b82525050565b60006060820190506145b16000830186614112565b6145be602083018561458d565b6145cb604083018461458d565b949350505050565b7f4e487b7100000000000000000000000000000000000000000000000000000000600052603260045260246000fd5b7f4e487b7100000000000000000000000000000000000000000000000000000000600052602260045260246000fd5b6000600282049050600182168061464957607f821691505b60208210810361465c5761465b614602565b5b50919050565b60006040820190506146776000830185614112565b614684602083018461458d565b9392505050565b7f416c726561647920696e697469616c697a656400000000000000000000000000600082015250565b60006146c160138361362f565b91506146cc8261468b565b602082019050919050565b600060208201905081810360008301526146f0816146b4565b9050919050565b6000819050919050565b6000819050919050565b600061472661472161471c846146f7565b614701565b6132c6565b9050919050565b6147368161470b565b82525050565b6000602082019050614751600083018461472d565b92915050565b7f4964656e74697479206964206d69736d61746368000000000000000000000000600082015250565b600061478d60148361362f565b915061479882614757565b602082019050919050565b600060208201905081810360008301526147bc81614780565b9050919050565b6000606082840312156147d9576147d8614151565b5b6147e360606141b6565b905060006147f3848285016141d6565b6000830152506020614807848285016141d6565b602083015250604061481b848285016141d6565b60408301525092915050565b60006060828403121561483d5761483c6132bc565b5b600061484b848285016147c3565b91505092915050565b60006060820190506148696000830186614112565b6148766020830185614119565b614883604083018461458d565b949350505050565b7f5b416e6f6e4161646861617243726564656e7469616c4973737565725d3a205060008201527f726576696f757320636c61696d206e6f7420657870697265642e000000000000602082015250565b60006148e7603a8361362f565b91506148f28261488b565b604082019050919050565b60006020820190508181036000830152614916816148da565b9050919050565b82818337505050565b6149326080838361491d565b5050565b614943610100838361491d565b5050565b60006102008201905061495d600083018961354b565b61496a602083018861354b565b614977604083018761354b565b614984606083018661354b565b6149916080830185614926565b61499f610100830184614936565b979650505050505050565b6000602082840312156149c0576149bf6132bc565b5b60006149ce84828501614202565b91505092915050565b7f5b416e6f6e4161646861617242616c616e636543726564656e7469616c49737360008201527f7565725d3a205468652070726f6f662073656e74206973206e6f742076616c6960208201527f642e000000000000000000000000000000000000000000000000000000000000604082015250565b6000614a5960428361362f565b9150614a64826149d7565b606082019050919050565b60006020820190508181036000830152614a8881614a4c565b9050919050565b6000614a9a82613333565b9150614aa583613333565b9250828201905080821115614abd57614abc6144e1565b5b92915050565b614acc81613333565b82525050565b600060ff82169050919050565b614ae881614ad2565b82525050565b614af78161334c565b82525050565b600063ffffffff82169050919050565b614b1681614afd565b82525050565b614b25816132c6565b82525050565b6101c082016000820151614b426000850182614ac3565b506020820151614b556020850182614adf565b506040820151614b686040850182614aee565b506060820151614b7b6060850182614aee565b506080820151614b8e6080850182614adf565b5060a0820151614ba160a0850182614b0d565b5060c0820151614bb460c0850182614ac3565b5060e0820151614bc760e0850182614b1c565b50610100820151614bdc610100850182614b1c565b50610120820151614bf1610120850182614ac3565b50610140820151614c06610140850182614ac3565b50610160820151614c1b610160850182614ac3565b50610180820151614c30610180850182614ac3565b506101a0820151614c456101a0850182614ac3565b50505050565b60006101c082019050614c616000830184614b2b565b92915050565b600067ffffffffffffffff821115614c8257614c81614156565b5b602082029050919050565b6000614ca0614c9b84614c67565b6141b6565b90508060208402830185811115614cba57614cb9613f5b565b5b835b81811015614ce35780614ccf88826141d6565b845260208401935050602081019050614cbc565b5050509392505050565b600082601f830112614d0257614d01614217565b5b6008614d0f848285614c8d565b91505092915050565b60006101008284031215614d2f57614d2e6132bc565b5b6000614d3d84828501614ced565b91505092915050565b600060049050919050565b600081905092915050565b6000819050919050565b6000614d728383614ac3565b60208301905092915050565b6000602082019050919050565b614d9481614d46565b614d9e8184614d51565b9250614da982614d5c565b8060005b83811015614dda578151614dc18782614d66565b9650614dcc83614d7e565b925050600181019050614dad565b505050505050565b6000608082019050614df76000830184614d8b565b92915050565b60008190508160005260206000209050919050565b60006020601f8301049050919050565b600082821b905092915050565b600060088302614e5f7fffffffffffffffffffffffffffffffffffffffffffffffffffffffffffffffff82614e22565b614e698683614e22565b95508019841693508086168417925050509392505050565b6000614e9c614e97614e9284613333565b614701565b613333565b9050919050565b6000819050919050565b614eb683614e81565b614eca614ec282614ea3565b848454614e2f565b825550505050565b600090565b614edf614ed2565b614eea818484614ead565b505050565b5b81811015614f0e57614f03600082614ed7565b600181019050614ef0565b5050565b601f821115614f5357614f2481614dfd565b614f2d84614e12565b81016020851015614f3c578190505b614f50614f4885614e12565b830182614eef565b50505b505050565b600082821c905092915050565b6000614f7660001984600802614f58565b1980831691505092915050565b6000614f8f8383614f65565b9150826002028217905092915050565b614fa882613624565b67ffffffffffffffff811115614fc157614fc0614156565b5b614fcb8254614631565b614fd6828285614f12565b600060209050601f8311600181146150095760008415614ff7578287015190505b6150018582614f83565b865550615069565b601f19841661501786614dfd565b60005b8281101561503f5784890151825560018201915060208501945060208101905061501a565b8683101561505c5784890151615058601f891682614f65565b8355505b6001600288020188555050505b505050505050565b60008190508160005260206000209050919050565b601f8211156150c75761509881615071565b6150a184614e12565b810160208510156150b0578190505b6150c46150bc85614e12565b830182614eef565b50505b505050565b6150d582613c82565b67ffffffffffffffff8111156150ee576150ed614156565b5b6150f88254614631565b615103828285615086565b600060209050601f8311600181146151365760008415615124578287015190505b61512e8582614f83565b865550615196565b601f19841661514486615071565b60005b8281101561516c57848901518255600182019150602085019450602081019050615147565b868310156151895784890151615185601f891682614f65565b8355505b6001600288020188555050505b505050505050565b6151a7816136f6565b82525050565b60006080820190506151c26000830187614112565b6151cf602083018661519e565b6151dc604083018561519e565b6151e9606083018461458d565b95945050505050565b7f54696d657374616d7020657863656564732075696e7436342072616e67650000600082015250565b6000615228601e8361362f565b9150615233826151f2565b602082019050919050565b600060208201905081810360008301526152578161521b565b9050919050565b6000615269826132c6565b915067ffffffffffffffff8203615283576152826144e1565b5b60018201905091905056fe68747470733a2f2f7261772e67697468756275736572636f6e74656e742e636f6d2f616e6f6e2d616164686161722f7072697661646f2d636f6e7472616374732f6d61696e2f6173736574732f616e6f6e2d616164686161722e6a736f6e68747470733a2f2f736368656d612e6964656e332e696f2f636f72652f6a736f6e6c642f646973706c61794d6574686f642e6a736f6e6c6468747470733a2f2f7261772e67697468756275736572636f6e74656e742e636f6d2f616e6f6e2d616164686161722f7072697661646f2d636f6e7472616374732f6d61696e2f6173736574732f616e6f6e2d616164686161722d646973706c61792d6d6574686f642e6a736f6e68747470733a2f2f7261772e67697468756275736572636f6e74656e742e636f6d2f616e6f6e2d616164686161722f7072697661646f2d636f6e7472616374732f6d61696e2f6173736574732f616e6f6e2d616164686161722e6a736f6e6c64a2646970667358221220494b57d29fb870d0be4a6bf9e904be1642b7bb6ea97016aebb42bc0529cceb1e64736f6c63430008140033",
  "linkReferences": {
    "@iden3/contracts/lib/ClaimBuilder.sol": {
      "ClaimBuilder": [
        {
          "length": 20,
          "start": 7139
        }
      ]
    },
    "@iden3/contracts/lib/IdentityLib.sol": {
      "IdentityLib": [
        {
          "length": 20,
          "start": 2051
        },
        {
          "length": 20,
          "start": 2201
        },
        {
          "length": 20,
          "start": 2637
        },
        {
          "length": 20,
          "start": 2791
        },
        {
          "length": 20,
          "start": 2948
        },
        {
          "length": 20,
          "start": 4260
        },
        {
          "length": 20,
          "start": 4422
        },
        {
          "length": 20,
          "start": 5696
        },
        {
          "length": 20,
          "start": 5883
        },
        {
          "length": 20,
          "start": 9023
        },
        {
          "length": 20,
          "start": 9179
        },
        {
          "length": 20,
          "start": 9332
        },
        {
          "length": 20,
          "start": 9481
        },
        {
          "length": 20,
          "start": 9627
        },
        {
          "length": 20,
          "start": 9785
        },
        {
          "length": 20,
          "start": 9987
        },
        {
          "length": 20,
          "start": 10200
        },
        {
          "length": 20,
          "start": 10317
        },
        {
          "length": 20,
          "start": 11311
        },
        {
          "length": 20,
          "start": 11430
        }
      ]
    },
    "@iden3/contracts/lib/Poseidon.sol": {
      "PoseidonUnit4L": [
        {
          "length": 20,
          "start": 7264
        },
        {
          "length": 20,
          "start": 7516
        }
      ]
    }
  },
  "deployedLinkReferences": {
    "@iden3/contracts/lib/ClaimBuilder.sol": {
      "ClaimBuilder": [
        {
          "length": 20,
          "start": 7107
        }
      ]
    },
    "@iden3/contracts/lib/IdentityLib.sol": {
      "IdentityLib": [
        {
          "length": 20,
          "start": 2019
        },
        {
          "length": 20,
          "start": 2169
        },
        {
          "length": 20,
          "start": 2605
        },
        {
          "length": 20,
          "start": 2759
        },
        {
          "length": 20,
          "start": 2916
        },
        {
          "length": 20,
          "start": 4228
        },
        {
          "length": 20,
          "start": 4390
        },
        {
          "length": 20,
          "start": 5664
        },
        {
          "length": 20,
          "start": 5851
        },
        {
          "length": 20,
          "start": 8991
        },
        {
          "length": 20,
          "start": 9147
        },
        {
          "length": 20,
          "start": 9300
        },
        {
          "length": 20,
          "start": 9449
        },
        {
          "length": 20,
          "start": 9595
        },
        {
          "length": 20,
          "start": 9753
        },
        {
          "length": 20,
          "start": 9955
        },
        {
          "length": 20,
          "start": 10168
        },
        {
          "length": 20,
          "start": 10285
        },
        {
          "length": 20,
          "start": 11279
        },
        {
          "length": 20,
          "start": 11398
        }
      ]
    },
    "@iden3/contracts/lib/Poseidon.sol": {
      "PoseidonUnit4L": [
        {
          "length": 20,
          "start": 7232
        },
        {
          "length": 20,
          "start": 7484
        }
      ]
    }
  }
}