{
  "_format": "hh-sol-artifact-1",
  "contractName": "AnonAadhaarBalanceCredentialIssuer",
  "sourceName": "contracts/anon-aadhaar/AnonAadhaarBalanceCredentialIssuer.sol",
  "abi": [
    {
      "inputs": [],
      "name": "InvalidInitialization",
      "type": "error"
    },
    {
      "inputs": [],
      "name": "NotInitializing",
      "type": "error"
    },
    {
      "inputs": [
        {
          "internalType": "address",
          "name": "owner",
          "type": "address"
        }
      ],
      "name": "OwnableInvalidOwner",
      "type": "error"
    },
    {
      "inputs": [
        {
          "internalType": "address",
          "name": "account",
          "type": "address"
        }
      ],
      "name": "OwnableUnauthorizedAccount",
      "type": "error"
    },
    {
      "anonymous": false,
      "inputs": [
        {
          "indexed": false,
          "internalType": "uint64",
          "name": "version",
          "type": "uint64"
        }
      ],
      "name": "Initialized",
      "type": "event"
    },
    {
      "anonymous": false,
      "inputs": [
        {
          "indexed": true,
          "internalType": "address",
          "name": "previousOwner",
          "type": "address"
        },
        {
          "indexed": true,
          "internalType": "address",
          "name": "newOwner",
          "type": "address"
        }
      ],
      "name": "OwnershipTransferStarted",
      "type": "event"
    },
    {
      "anonymous": false,
      "inputs": [
        {
          "indexed": true,
          "internalType": "address",
          "name": "previousOwner",
          "type": "address"
        },
        {
          "indexed": true,
          "internalType": "address",
          "name": "newOwner",
          "type": "address"
        }
      ],
      "name": "OwnershipTransferred",
      "type": "event"
    },
    {
      "inputs": [],
      "name": "CREDENTIAL_ADAPTER_VERSION",
      "outputs": [
        {
          "internalType": "string",
          "name": "",
          "type": "string"
        }
      ],
      "stateMutability": "view",
      "type": "function"
    },
    {
      "inputs": [],
      "name": "VERSION",
      "outputs": [
        {
          "internalType": "string",
          "name": "",
          "type": "string"
        }
      ],
      "stateMutability": "view",
      "type": "function"
    },
    {
      "inputs": [],
      "name": "acceptOwnership",
      "outputs": [],
      "stateMutability": "nonpayable",
      "type": "function"
    },
    {
      "inputs": [],
      "name": "anonAadhaarVerifierAddr",
      "outputs": [
        {
          "internalType": "address",
          "name": "",
          "type": "address"
        }
      ],
      "stateMutability": "view",
      "type": "function"
    },
    {
      "inputs": [],
      "name": "generateNonce",
      "outputs": [
        {
          "internalType": "uint256",
          "name": "",
          "type": "uint256"
        }
      ],
      "stateMutability": "view",
      "type": "function"
    },
    {
      "inputs": [
        {
          "internalType": "uint256",
          "name": "claimIndexHash",
          "type": "uint256"
        }
      ],
      "name": "getClaimProof",
      "outputs": [
        {
          "components": [
            {
              "internalType": "uint256",
              "name": "root",
              "type": "uint256"
            },
            {
              "internalType": "bool",
              "name": "existence",
              "type": "bool"
            },
            {
              "internalType": "uint256[]",
              "name": "siblings",
              "type": "uint256[]"
            },
            {
              "internalType": "uint256",
              "name": "index",
              "type": "uint256"
            },
            {
              "internalType": "uint256",
              "name": "value",
              "type": "uint256"
            },
            {
              "internalType": "bool",
              "name": "auxExistence",
              "type": "bool"
            },
            {
              "internalType": "uint256",
              "name": "auxIndex",
              "type": "uint256"
            },
            {
              "internalType": "uint256",
              "name": "auxValue",
              "type": "uint256"
            }
          ],
          "internalType": "struct SmtLib.Proof",
          "name": "",
          "type": "tuple"
        }
      ],
      "stateMutability": "view",
      "type": "function"
    },
    {
      "inputs": [
        {
          "internalType": "uint256",
          "name": "claimIndexHash",
          "type": "uint256"
        },
        {
          "internalType": "uint256",
          "name": "root",
          "type": "uint256"
        }
      ],
      "name": "getClaimProofByRoot",
      "outputs": [
        {
          "components": [
            {
              "internalType": "uint256",
              "name": "root",
              "type": "uint256"
            },
            {
              "internalType": "bool",
              "name": "existence",
              "type": "bool"
            },
            {
              "internalType": "uint256[]",
              "name": "siblings",
              "type": "uint256[]"
            },
            {
              "internalType": "uint256",
              "name": "index",
              "type": "uint256"
            },
            {
              "internalType": "uint256",
              "name": "value",
              "type": "uint256"
            },
            {
              "internalType": "bool",
              "name": "auxExistence",
              "type": "bool"
            },
            {
              "internalType": "uint256",
              "name": "auxIndex",
              "type": "uint256"
            },
            {
              "internalType": "uint256",
              "name": "auxValue",
              "type": "uint256"
            }
          ],
          "internalType": "struct SmtLib.Proof",
          "name": "",
          "type": "tuple"
        }
      ],
      "stateMutability": "view",
      "type": "function"
    },
    {
      "inputs": [
        {
          "internalType": "uint256",
          "name": "claimIndexHash",
          "type": "uint256"
        }
      ],
      "name": "getClaimProofWithStateInfo",
      "outputs": [
        {
          "components": [
            {
              "internalType": "uint256",
              "name": "root",
              "type": "uint256"
            },
            {
              "internalType": "bool",
              "name": "existence",
              "type": "bool"
            },
            {
              "internalType": "uint256[]",
              "name": "siblings",
              "type": "uint256[]"
            },
            {
              "internalType": "uint256",
              "name": "index",
              "type": "uint256"
            },
            {
              "internalType": "uint256",
              "name": "value",
              "type": "uint256"
            },
            {
              "internalType": "bool",
              "name": "auxExistence",
              "type": "bool"
            },
            {
              "internalType": "uint256",
              "name": "auxIndex",
              "type": "uint256"
            },
            {
              "internalType": "uint256",
              "name": "auxValue",
              "type": "uint256"
            }
          ],
          "internalType": "struct SmtLib.Proof",
          "name": "",
          "type": "tuple"
        },
        {
          "components": [
            {
              "internalType": "uint256",
              "name": "state",
              "type": "uint256"
            },
            {
              "internalType": "uint256",
              "name": "claimsRoot",
              "type": "uint256"
            },
            {
              "internalType": "uint256",
              "name": "revocationsRoot",
              "type": "uint256"
            },
            {
              "internalType": "uint256",
              "name": "rootsRoot",
              "type": "uint256"
            }
          ],
          "internalType": "struct IdentityLib.StateInfo",
          "name": "",
          "type": "tuple"
        }
      ],
      "stateMutability": "view",
      "type": "function"
    },
    {
      "inputs": [],
      "name": "getClaimsTreeRoot",
      "outputs": [
        {
          "internalType": "uint256",
          "name": "",
          "type": "uint256"
        }
      ],
      "stateMutability": "view",
      "type": "function"
    },
    {
      "inputs": [
        {
          "internalType": "uint256",
          "name": "_userId",
          "type": "uint256"
        },
        {
          "internalType": "uint256",
          "name": "_credentialId",
          "type": "uint256"
        }
      ],
      "name": "getCredential",
      "outputs": [
        {
          "components": [
            {
              "internalType": "uint256",
              "name": "id",
              "type": "uint256"
            },
            {
              "internalType": "string[]",
              "name": "context",
              "type": "string[]"
            },
            {
              "internalType": "string",
              "name": "_type",
              "type": "string"
            },
            {
              "internalType": "uint64",
              "name": "issuanceDate",
              "type": "uint64"
            },
            {
              "components": [
                {
                  "internalType": "string",
                  "name": "id",
                  "type": "string"
                },
                {
                  "internalType": "string",
                  "name": "_type",
                  "type": "string"
                }
              ],
              "internalType": "struct INonMerklizedIssuer.CredentialSchema",
              "name": "credentialSchema",
              "type": "tuple"
            },
            {
              "components": [
                {
                  "internalType": "string",
                  "name": "id",
                  "type": "string"
                },
                {
                  "internalType": "string",
                  "name": "_type",
                  "type": "string"
                }
              ],
              "internalType": "struct INonMerklizedIssuer.DisplayMethod",
              "name": "displayMethod",
              "type": "tuple"
            }
          ],
          "internalType": "struct INonMerklizedIssuer.CredentialData",
          "name": "",
          "type": "tuple"
        },
        {
          "internalType": "uint256[8]",
          "name": "",
          "type": "uint256[8]"
        },
        {
          "components": [
            {
              "internalType": "string",
              "name": "key",
              "type": "string"
            },
            {
              "internalType": "uint256",
              "name": "value",
              "type": "uint256"
            },
            {
              "internalType": "bytes",
              "name": "rawValue",
              "type": "bytes"
            }
          ],
          "internalType": "struct INonMerklizedIssuer.SubjectField[]",
          "name": "",
          "type": "tuple[]"
        }
      ],
      "stateMutability": "view",
      "type": "function"
    },
    {
      "inputs": [],
      "name": "getCredentialAdapterVersion",
      "outputs": [
        {
          "internalType": "string",
          "name": "",
          "type": "string"
        }
      ],
      "stateMutability": "pure",
      "type": "function"
    },
    {
      "inputs": [],
      "name": "getId",
      "outputs": [
        {
          "internalType": "uint256",
          "name": "",
          "type": "uint256"
        }
      ],
      "stateMutability": "view",
      "type": "function"
    },
    {
      "inputs": [],
      "name": "getIsOldStateGenesis",
      "outputs": [
        {
          "internalType": "bool",
          "name": "",
          "type": "bool"
        }
      ],
      "stateMutability": "view",
      "type": "function"
    },
    {
      "inputs": [],
      "name": "getLatestPublishedClaimsRoot",
      "outputs": [
        {
          "internalType": "uint256",
          "name": "",
          "type": "uint256"
        }
      ],
      "stateMutability": "view",
      "type": "function"
    },
    {
      "inputs": [],
      "name": "getLatestPublishedRevocationsRoot",
      "outputs": [
        {
          "internalType": "uint256",
          "name": "",
          "type": "uint256"
        }
      ],
      "stateMutability": "view",
      "type": "function"
    },
    {
      "inputs": [],
      "name": "getLatestPublishedRootsRoot",
      "outputs": [
        {
          "internalType": "uint256",
          "name": "",
          "type": "uint256"
        }
      ],
      "stateMutability": "view",
      "type": "function"
    },
    {
      "inputs": [],
      "name": "getLatestPublishedState",
      "outputs": [
        {
          "internalType": "uint256",
          "name": "",
          "type": "uint256"
        }
      ],
      "stateMutability": "view",
      "type": "function"
    },
    {
      "inputs": [
        {
          "internalType": "uint64",
          "name": "revocationNonce",
          "type": "uint64"
        }
      ],
      "name": "getRevocationProof",
      "outputs": [
        {
          "components": [
            {
              "internalType": "uint256",
              "name": "root",
              "type": "uint256"
            },
            {
              "internalType": "bool",
              "name": "existence",
              "type": "bool"
            },
            {
              "internalType": "uint256[]",
              "name": "siblings",
              "type": "uint256[]"
            },
            {
              "internalType": "uint256",
              "name": "index",
              "type": "uint256"
            },
            {
              "internalType": "uint256",
              "name": "value",
              "type": "uint256"
            },
            {
              "internalType": "bool",
              "name": "auxExistence",
              "type": "bool"
            },
            {
              "internalType": "uint256",
              "name": "auxIndex",
              "type": "uint256"
            },
            {
              "internalType": "uint256",
              "name": "auxValue",
              "type": "uint256"
            }
          ],
          "internalType": "struct SmtLib.Proof",
          "name": "",
          "type": "tuple"
        }
      ],
      "stateMutability": "view",
      "type": "function"
    },
    {
      "inputs": [
        {
          "internalType": "uint64",
          "name": "revocationNonce",
          "type": "uint64"
        },
        {
          "internalType": "uint256",
          "name": "root",
          "type": "uint256"
        }
      ],
      "name": "getRevocationProofByRoot",
      "outputs": [
        {
          "components": [
            {
              "internalType": "uint256",
              "name": "root",
              "type": "uint256"
            },
            {
              "internalType": "bool",
              "name": "existence",
              "type": "bool"
            },
            {
              "internalType": "uint256[]",
              "name": "siblings",
              "type": "uint256[]"
            },
            {
              "internalType": "uint256",
              "name": "index",
              "type": "uint256"
            },
            {
              "internalType": "uint256",
              "name": "value",
              "type": "uint256"
            },
            {
              "internalType": "bool",
              "name": "auxExistence",
              "type": "bool"
            },
            {
              "internalType": "uint256",
              "name": "auxIndex",
              "type": "uint256"
            },
            {
              "internalType": "uint256",
              "name": "auxValue",
              "type": "uint256"
            }
          ],
          "internalType": "struct SmtLib.Proof",
          "name": "",
          "type": "tuple"
        }
      ],
      "stateMutability": "view",
      "type": "function"
    },
    {
      "inputs": [
        {
          "internalType": "uint64",
          "name": "revocationNonce",
          "type": "uint64"
        }
      ],
      "name": "getRevocationProofWithStateInfo",
      "outputs": [
        {
          "components": [
            {
              "internalType": "uint256",
              "name": "root",
              "type": "uint256"
            },
            {
              "internalType": "bool",
              "name": "existence",
              "type": "bool"
            },
            {
              "internalType": "uint256[]",
              "name": "siblings",
              "type": "uint256[]"
            },
            {
              "internalType": "uint256",
              "name": "index",
              "type": "uint256"
            },
            {
              "internalType": "uint256",
              "name": "value",
              "type": "uint256"
            },
            {
              "internalType": "bool",
              "name": "auxExistence",
              "type": "bool"
            },
            {
              "internalType": "uint256",
              "name": "auxIndex",
              "type": "uint256"
            },
            {
              "internalType": "uint256",
              "name": "auxValue",
              "type": "uint256"
            }
          ],
          "internalType": "struct SmtLib.Proof",
          "name": "",
          "type": "tuple"
        },
        {
          "components": [
            {
              "internalType": "uint256",
              "name": "state",
              "type": "uint256"
            },
            {
              "internalType": "uint256",
              "name": "claimsRoot",
              "type": "uint256"
            },
            {
              "internalType": "uint256",
              "name": "revocationsRoot",
              "type": "uint256"
            },
            {
              "internalType": "uint256",
              "name": "rootsRoot",
              "type": "uint256"
            }
          ],
          "internalType": "struct IdentityLib.StateInfo",
          "name": "",
          "type": "tuple"
        }
      ],
      "stateMutability": "view",
      "type": "function"
    },
    {
      "inputs": [
        {
          "internalType": "uint256",
          "name": "id",
          "type": "uint256"
        },
        {
          "internalType": "uint64",
          "name": "nonce",
          "type": "uint64"
        }
      ],
      "name": "getRevocationStatus",
      "outputs": [
        {
          "components": [
            {
              "components": [
                {
                  "internalType": "uint256",
                  "name": "state",
                  "type": "uint256"
                },
                {
                  "internalType": "uint256",
                  "name": "claimsTreeRoot",
                  "type": "uint256"
                },
                {
                  "internalType": "uint256",
                  "name": "revocationTreeRoot",
                  "type": "uint256"
                },
                {
                  "internalType": "uint256",
                  "name": "rootOfRoots",
                  "type": "uint256"
                }
              ],
              "internalType": "struct IOnchainCredentialStatusResolver.IdentityStateRoots",
              "name": "issuer",
              "type": "tuple"
            },
            {
              "components": [
                {
                  "internalType": "uint256",
                  "name": "root",
                  "type": "uint256"
                },
                {
                  "internalType": "bool",
                  "name": "existence",
                  "type": "bool"
                },
                {
                  "internalType": "uint256[]",
                  "name": "siblings",
                  "type": "uint256[]"
                },
                {
                  "internalType": "uint256",
                  "name": "index",
                  "type": "uint256"
                },
                {
                  "internalType": "uint256",
                  "name": "value",
                  "type": "uint256"
                },
                {
                  "internalType": "bool",
                  "name": "auxExistence",
                  "type": "bool"
                },
                {
                  "internalType": "uint256",
                  "name": "auxIndex",
                  "type": "uint256"
                },
                {
                  "internalType": "uint256",
                  "name": "auxValue",
                  "type": "uint256"
                }
              ],
              "internalType": "struct IOnchainCredentialStatusResolver.Proof",
              "name": "mtp",
              "type": "tuple"
            }
          ],
          "internalType": "struct IOnchainCredentialStatusResolver.CredentialStatus",
          "name": "",
          "type": "tuple"
        }
      ],
      "stateMutability": "view",
      "type": "function"
    },
    {
      "inputs": [
        {
          "internalType": "uint256",
          "name": "id",
          "type": "uint256"
        },
        {
          "internalType": "uint256",
          "name": "state",
          "type": "uint256"
        },
        {
          "internalType": "uint64",
          "name": "nonce",
          "type": "uint64"
        }
      ],
      "name": "getRevocationStatusByIdAndState",
      "outputs": [
        {
          "components": [
            {
              "components": [
                {
                  "internalType": "uint256",
                  "name": "state",
                  "type": "uint256"
                },
                {
                  "internalType": "uint256",
                  "name": "claimsTreeRoot",
                  "type": "uint256"
                },
                {
                  "internalType": "uint256",
                  "name": "revocationTreeRoot",
                  "type": "uint256"
                },
                {
                  "internalType": "uint256",
                  "name": "rootOfRoots",
                  "type": "uint256"
                }
              ],
              "internalType": "struct IOnchainCredentialStatusResolver.IdentityStateRoots",
              "name": "issuer",
              "type": "tuple"
            },
            {
              "components": [
                {
                  "internalType": "uint256",
                  "name": "root",
                  "type": "uint256"
                },
                {
                  "internalType": "bool",
                  "name": "existence",
                  "type": "bool"
                },
                {
                  "internalType": "uint256[]",
                  "name": "siblings",
                  "type": "uint256[]"
                },
                {
                  "internalType": "uint256",
                  "name": "index",
                  "type": "uint256"
                },
                {
                  "internalType": "uint256",
                  "name": "value",
                  "type": "uint256"
                },
                {
                  "internalType": "bool",
                  "name": "auxExistence",
                  "type": "bool"
                },
                {
                  "internalType": "uint256",
                  "name": "auxIndex",
                  "type": "uint256"
                },
                {
                  "internalType": "uint256",
                  "name": "auxValue",
                  "type": "uint256"
                }
              ],
              "internalType": "struct IOnchainCredentialStatusResolver.Proof",
              "name": "mtp",
              "type": "tuple"
            }
          ],
          "internalType": "struct IOnchainCredentialStatusResolver.CredentialStatus",
          "name": "",
          "type": "tuple"
        }
      ],
      "stateMutability": "view",
      "type": "function"
    },
    {
      "inputs": [],
      "name": "getRevocationsTreeRoot",
      "outputs": [
        {
          "internalType": "uint256",
          "name": "",
          "type": "uint256"
        }
      ],
      "stateMutability": "view",
      "type": "function"
    },
    {
      "inputs": [
        {
          "internalType": "uint256",
          "name": "rootsTreeRoot",
          "type": "uint256"
        }
      ],
      "name": "getRootProof",
      "outputs": [
        {
          "components": [
            {
              "internalType": "uint256",
              "name": "root",
              "type": "uint256"
            },
            {
              "internalType": "bool",
              "name": "existence",
              "type": "bool"
            },
            {
              "internalType": "uint256[]",
              "name": "siblings",
              "type": "uint256[]"
            },
            {
              "internalType": "uint256",
              "name": "index",
              "type": "uint256"
            },
            {
              "internalType": "uint256",
              "name": "value",
              "type": "uint256"
            },
            {
              "internalType": "bool",
              "name": "auxExistence",
              "type": "bool"
            },
            {
              "internalType": "uint256",
              "name": "auxIndex",
              "type": "uint256"
            },
            {
              "internalType": "uint256",
              "name": "auxValue",
              "type": "uint256"
            }
          ],
          "internalType": "struct SmtLib.Proof",
          "name": "",
          "type": "tuple"
        }
      ],
      "stateMutability": "view",
      "type": "function"
    },
    {
      "inputs": [
        {
          "internalType": "uint256",
          "name": "claimsTreeRoot",
          "type": "uint256"
        },
        {
          "internalType": "uint256",
          "name": "root",
          "type": "uint256"
        }
      ],
      "name": "getRootProofByRoot",
      "outputs": [
        {
          "components": [
            {
              "internalType": "uint256",
              "name": "root",
              "type": "uint256"
            },
            {
              "internalType": "bool",
              "name": "existence",
              "type": "bool"
            },
            {
              "internalType": "uint256[]",
              "name": "siblings",
              "type": "uint256[]"
            },
            {
              "internalType": "uint256",
              "name": "index",
              "type": "uint256"
            },
            {
              "internalType": "uint256",
              "name": "value",
              "type": "uint256"
            },
            {
              "internalType": "bool",
              "name": "auxExistence",
              "type": "bool"
            },
            {
              "internalType": "uint256",
              "name": "auxIndex",
              "type": "uint256"
            },
            {
              "internalType": "uint256",
              "name": "auxValue",
              "type": "uint256"
            }
          ],
          "internalType": "struct SmtLib.Proof",
          "name": "",
          "type": "tuple"
        }
      ],
      "stateMutability": "view",
      "type": "function"
    },
    {
      "inputs": [
        {
          "internalType": "uint256",
          "name": "rootsTreeRoot",
          "type": "uint256"
        }
      ],
      "name": "getRootProofWithStateInfo",
      "outputs": [
        {
          "components": [
            {
              "internalType": "uint256",
              "name": "root",
              "type": "uint256"
            },
            {
              "internalType": "bool",
              "name": "existence",
              "type": "bool"
            },
            {
              "internalType": "uint256[]",
              "name": "siblings",
              "type": "uint256[]"
            },
            {
              "internalType": "uint256",
              "name": "index",
              "type": "uint256"
            },
            {
              "internalType": "uint256",
              "name": "value",
              "type": "uint256"
            },
            {
              "internalType": "bool",
              "name": "auxExistence",
              "type": "bool"
            },
            {
              "internalType": "uint256",
              "name": "auxIndex",
              "type": "uint256"
            },
            {
              "internalType": "uint256",
              "name": "auxValue",
              "type": "uint256"
            }
          ],
          "internalType": "struct SmtLib.Proof",
          "name": "",
          "type": "tuple"
        },
        {
          "components": [
            {
              "internalType": "uint256",
              "name": "state",
              "type": "uint256"
            },
            {
              "internalType": "uint256",
              "name": "claimsRoot",
              "type": "uint256"
            },
            {
              "internalType": "uint256",
              "name": "revocationsRoot",
              "type": "uint256"
            },
            {
              "internalType": "uint256",
              "name": "rootsRoot",
              "type": "uint256"
            }
          ],
          "internalType": "struct IdentityLib.StateInfo",
          "name": "",
          "type": "tuple"
        }
      ],
      "stateMutability": "view",
      "type": "function"
    },
    {
      "inputs": [
        {
          "internalType": "uint256",
          "name": "state",
          "type": "uint256"
        }
      ],
      "name": "getRootsByState",
      "outputs": [
        {
          "components": [
            {
              "internalType": "uint256",
              "name": "claimsRoot",
              "type": "uint256"
            },
            {
              "internalType": "uint256",
              "name": "revocationsRoot",
              "type": "uint256"
            },
            {
              "internalType": "uint256",
              "name": "rootsRoot",
              "type": "uint256"
            }
          ],
          "internalType": "struct IdentityLib.Roots",
          "name": "",
          "type": "tuple"
        }
      ],
      "stateMutability": "view",
      "type": "function"
    },
    {
      "inputs": [],
      "name": "getRootsTreeRoot",
      "outputs": [
        {
          "internalType": "uint256",
          "name": "",
          "type": "uint256"
        }
      ],
      "stateMutability": "view",
      "type": "function"
    },
    {
      "inputs": [],
      "name": "getSmtDepth",
      "outputs": [
        {
          "internalType": "uint256",
          "name": "",
          "type": "uint256"
        }
      ],
      "stateMutability": "pure",
      "type": "function"
    },
    {
      "inputs": [
        {
          "internalType": "uint256",
          "name": "_userId",
          "type": "uint256"
        }
      ],
      "name": "getUserCredentialIds",
      "outputs": [
        {
          "internalType": "uint256[]",
          "name": "",
          "type": "uint256[]"
        }
      ],
      "stateMutability": "view",
      "type": "function"
    },
    {
      "inputs": [
        {
          "internalType": "address",
          "name": "_stateContractAddr",
          "type": "address"
        },
        {
          "internalType": "address",
          "name": "_verifierAddr",
          "type": "address"
        }
      ],
      "name": "initialize",
      "outputs": [],
      "stateMutability": "nonpayable",
      "type": "function"
    },
    {
      "inputs": [
        {
          "internalType": "address",
          "name": "_stateContractAddr",
          "type": "address"
        }
      ],
      "name": "initialize",
      "outputs": [],
      "stateMutability": "nonpayable",
      "type": "function"
    },
    {
      "inputs": [
        {
          "internalType": "uint256",
          "name": "timestamp",
          "type": "uint256"
        }
      ],
      "name": "isLessThan3HoursAgo",
      "outputs": [
        {
          "internalType": "bool",
          "name": "",
          "type": "bool"
        }
      ],
      "stateMutability": "view",
      "type": "function"
    },
    {
      "inputs": [
        {
          "internalType": "uint256",
          "name": "_userId",
          "type": "uint256"
        },
        {
          "internalType": "uint256",
          "name": "nullifierSeed",
          "type": "uint256"
        },
        {
          "internalType": "uint256",
          "name": "nullifier",
          "type": "uint256"
        },
        {
          "internalType": "uint256",
          "name": "timestamp",
          "type": "uint256"
        },
        {
          "internalType": "uint256",
          "name": "signal",
          "type": "uint256"
        },
        {
          "internalType": "uint256[4]",
          "name": "revealArray",
          "type": "uint256[4]"
        },
        {
          "internalType": "uint256[8]",
          "name": "groth16Proof",
          "type": "uint256[8]"
        }
      ],
      "name": "issueCredential",
      "outputs": [],
      "stateMutability": "nonpayable",
      "type": "function"
    },
    {
      "inputs": [],
      "name": "owner",
      "outputs": [
        {
          "internalType": "address",
          "name": "",
          "type": "address"
        }
      ],
      "stateMutability": "view",
      "type": "function"
    },
    {
      "inputs": [],
      "name": "pendingOwner",
      "outputs": [
        {
          "internalType": "address",
          "name": "",
          "type": "address"
        }
      ],
      "stateMutability": "view",
      "type": "function"
    },
    {
      "inputs": [],
      "name": "renounceOwnership",
      "outputs": [],
      "stateMutability": "nonpayable",
      "type": "function"
    },
    {
      "inputs": [
        {
          "internalType": "uint64",
          "name": "_revocationNonce",
          "type": "uint64"
        }
      ],
      "name": "revokeClaimAndTransit",
      "outputs": [],
      "stateMutability": "nonpayable",
      "type": "function"
    },
    {
      "inputs": [],
      "name": "storedNullifierSeed",
      "outputs": [
        {
          "internalType": "uint256",
          "name": "",
          "type": "uint256"
        }
      ],
      "stateMutability": "view",
      "type": "function"
    },
    {
      "inputs": [
        {
          "internalType": "bytes4",
          "name": "interfaceId",
          "type": "bytes4"
        }
      ],
      "name": "supportsInterface",
      "outputs": [
        {
          "internalType": "bool",
          "name": "",
          "type": "bool"
        }
      ],
      "stateMutability": "view",
      "type": "function"
    },
    {
      "inputs": [
        {
          "internalType": "address",
          "name": "newOwner",
          "type": "address"
        }
      ],
      "name": "transferOwnership",
      "outputs": [],
      "stateMutability": "nonpayable",
      "type": "function"
    }
  ],
  "bytecode": "0x608060405234801561001057600080fd5b506158c480620000216000396000f3fe608060405234801561001057600080fd5b50600436106102525760003560e01c8063715018a611610146578063c4d66de8116100c3578063e26ecb0b11610087578063e26ecb0b14610756578063e30c397814610786578063f2a8ed5a146107a4578063f2fde38b146107c0578063f84c7c1e146107dc578063ffa1ad74146107fa57610252565b8063c4d66de8146106c2578063c6365a3b146106de578063da68a0b1146106fc578063dbd083a31461071a578063de3539721461073857610252565b8063af9365041161010a578063af936504146105e5578063b37feda414610601578063b57a40cb14610632578063b8db687114610662578063c1e327331461069257610252565b8063715018a61461056557806379ba50971461056f5780638da5cb5b146105795780639674cfa414610597578063aad72921146105b557610252565b8063310d0d5b116101d4578063443d753411610198578063443d7534146104ac578063485cc955146104dd578063523b8136146104f95780635d1ca63114610517578063668d0bd41461053557610252565b8063310d0d5b146103f057806337c1d9ff146104205780633d59ec60146104525780633df432fc146104705780633f0c66481461048e57610252565b806310a873011161021b57806310a8730114610312578063110c96a7146103305780631ec7ea8f1461036057806326485063146103905780632d5c4f25146103c057610252565b806233058d1461025757806301c85c771461028857806301ffc9a7146102a657806309cb9b62146102d65780630dbffbcd146102f4575b600080fd5b610271600480360381019061026c91906134af565b610818565b60405161027f9291906136c4565b60405180910390f35b6102906108bc565b60405161029d9190613703565b60405180910390f35b6102c060048036038101906102bb9190613776565b610947565b6040516102cd91906137b2565b60405180910390f35b6102de6109c1565b6040516102eb919061385d565b60405180910390f35b6102fc6109fe565b60405161030991906138c0565b60405180910390f35b61031a610a22565b6040516103279190613703565b60405180910390f35b61034a60048036038101906103459190613907565b610a2d565b6040516103579190613a89565b60405180910390f35b61037a60048036038101906103759190613aab565b610a5c565b60405161038791906137b2565b60405180910390f35b6103aa60048036038101906103a591906134af565b610a75565b6040516103b79190613ad8565b60405180910390f35b6103da60048036038101906103d59190613afa565b610b0f565b6040516103e79190613ad8565b60405180910390f35b61040a60048036038101906104059190613afa565b610bac565b6040516104179190613ad8565b60405180910390f35b61043a60048036038101906104359190613afa565b610c49565b60405161044993929190613f6d565b60405180910390f35b61045a6110bc565b6040516104679190613703565b60405180910390f35b6104786110d2565b6040516104859190613703565b60405180910390f35b61049661115d565b6040516104a39190613703565b60405180910390f35b6104c660048036038101906104c19190613aab565b611166565b6040516104d49291906136c4565b60405180910390f35b6104f760048036038101906104f29190613fe0565b61120a565b005b610501611479565b60405161050e9190613703565b60405180910390f35b61051f611492565b60405161052c9190613703565b60405180910390f35b61054f600480360381019061054a9190613aab565b6114a8565b60405161055c919061408f565b60405180910390f35b61056d611522565b005b610577611536565b005b6105816115c5565b60405161058e91906138c0565b60405180910390f35b61059f6115fd565b6040516105ac9190613703565b60405180910390f35b6105cf60048036038101906105ca91906140b1565b611616565b6040516105dc9190613a89565b60405180910390f35b6105ff60048036038101906105fa919061414d565b611842565b005b61061b60048036038101906106169190613aab565b612429565b6040516106299291906136c4565b60405180910390f35b61064c60048036038101906106479190613aab565b6124cd565b6040516106599190613ad8565b60405180910390f35b61067c60048036038101906106779190613aab565b612566565b6040516106899190614233565b60405180910390f35b6106ac60048036038101906106a79190613aab565b6125fb565b6040516106b99190613ad8565b60405180910390f35b6106dc60048036038101906106d7919061424e565b612695565b005b6106e6612718565b6040516106f39190613703565b60405180910390f35b610704612731565b6040516107119190613703565b60405180910390f35b6107226127bc565b60405161072f9190613703565b60405180910390f35b61074061281e565b60405161074d919061385d565b60405180910390f35b610770600480360381019061076b919061427b565b612857565b60405161077d9190613ad8565b60405180910390f35b61078e6128f4565b60405161079b91906138c0565b60405180910390f35b6107be60048036038101906107b991906134af565b61292c565b005b6107da60048036038101906107d5919061424e565b612a1f565b005b6107e4612adb565b6040516107f191906137b2565b60405180910390f35b610802612afe565b60405161080f919061385d565b60405180910390f35b610820613232565b61082861327b565b610830612b37565b60000173__$068aad146bf104111ba65c4a1de2cd0e23$__63f8b802689091856040518363ffffffff1660e01b815260040161086d9291906142d1565b600060405180830381865af415801561088a573d6000803e3d6000fd5b505050506040513d6000823e3d601f19601f820116820180604052508101906108b391906145e6565b91509150915091565b60006108c6612b37565b60000173__$068aad146bf104111ba65c4a1de2cd0e23$__63765c2c6190916040518263ffffffff1660e01b81526004016109019190614642565b602060405180830381865af415801561091e573d6000803e3d6000fd5b505050506040513d601f19601f82011682018060405250810190610942919061465d565b905090565b60007f58874949000000000000000000000000000000000000000000000000000000007bffffffffffffffffffffffffffffffffffffffffffffffffffffffff1916827bffffffffffffffffffffffffffffffffffffffffffffffffffffffff191614806109ba57506109b982612b5f565b5b9050919050565b60606040518060400160405280600581526020017f302e302e31000000000000000000000000000000000000000000000000000000815250905090565b60008054906101000a900473ffffffffffffffffffffffffffffffffffffffff1681565b6602a389d246000081565b610a356132a3565b6000610a3f612b37565b600001600101549050610a53848285611616565b91505092915050565b6000612a3042610a6c91906146b9565b82119050919050565b610a7d613232565b610a85612b37565b60000173__$068aad146bf104111ba65c4a1de2cd0e23$__637d0aba4f9091846040518363ffffffff1660e01b8152600401610ac29291906142d1565b600060405180830381865af4158015610adf573d6000803e3d6000fd5b505050506040513d6000823e3d601f19601f82011682018060405250810190610b0891906146ed565b9050919050565b610b17613232565b610b1f612b37565b60000173__$068aad146bf104111ba65c4a1de2cd0e23$__63d55da6a3909185856040518463ffffffff1660e01b8152600401610b5e93929190614745565b600060405180830381865af4158015610b7b573d6000803e3d6000fd5b505050506040513d6000823e3d601f19601f82011682018060405250810190610ba491906146ed565b905092915050565b610bb4613232565b610bbc612b37565b60000173__$068aad146bf104111ba65c4a1de2cd0e23$__63d5818b8e909185856040518463ffffffff1660e01b8152600401610bfb93929190614745565b600060405180830381865af4158015610c18573d6000803e3d6000fd5b505050506040513d6000823e3d601f19601f82011682018060405250810190610c4191906146ed565b905092915050565b610c516132c9565b610c59613315565b60606000610c65612bd9565b90506000600267ffffffffffffffff811115610c8457610c836142ff565b5b604051908082528060200260200182016040528015610cb757816020015b6060815260200190600190039081610ca25790505b50905060405180608001604052806060815260200161582f6060913981600081518110610ce757610ce661477c565b5b602002602001018190525060405180606001604052806038815260200161578a6038913981600181518110610d1f57610d1e61477c565b5b60200260200101819052506000826002016000888152602001908152602001600020604051806060016040529081600082015481526020016001820160009054906101000a900467ffffffffffffffff1667ffffffffffffffff1667ffffffffffffffff16815260200160028201600880602002604051908101604052809291908260088015610dc4576020028201915b815481526020019060010190808311610db0575b505050505081525050905060006040518060c00160405280836000015181526020018481526020016040518060400160405280601581526020017f416e6f6e4161646861617243726564656e7469616c00000000000000000000008152508152602001836020015167ffffffffffffffff16815260200160405180604001604052806040518060800160405280605e815260200161572c605e913981526020016040518060400160405280600e81526020017f4a736f6e536368656d6132303233000000000000000000000000000000000000815250815250815260200160405180604001604052806040518060a00160405280606d81526020016157c2606d913981526020016040518060400160405280601981526020017f4964656e334261736963446973706c61794d6574686f6456310000000000000081525081525081525090508082604001518560040160008b815260200190815260200160002080805480602002602001604051908101604052809291908181526020016000905b828210156110a55783829060005260206000209060030201604051806060016040529081600082018054610f78906147da565b80601f0160208091040260200160405190810160405280929190818152602001828054610fa4906147da565b8015610ff15780601f10610fc657610100808354040283529160200191610ff1565b820191906000526020600020905b815481529060010190602001808311610fd457829003601f168201915b5050505050815260200160018201548152602001600282018054611014906147da565b80601f0160208091040260200160405190810160405280929190818152602001828054611040906147da565b801561108d5780601f106110625761010080835404028352916020019161108d565b820191906000526020600020905b81548152906001019060200180831161107057829003601f168201915b50505050508152505081526020019060010190610f45565b505050509050965096509650505050509250925092565b60006110c6612b37565b60000160010154905090565b60006110dc612b37565b60000173__$068aad146bf104111ba65c4a1de2cd0e23$__636e2fe66c90916040518263ffffffff1660e01b81526004016111179190614642565b602060405180830381865af4158015611134573d6000803e3d6000fd5b505050506040513d601f19601f82011682018060405250810190611158919061465d565b905090565b60006028905090565b61116e613232565b61117661327b565b61117e612b37565b60000173__$068aad146bf104111ba65c4a1de2cd0e23$__63a3018d799091856040518363ffffffff1660e01b81526004016111bb92919061480b565b600060405180830381865af41580156111d8573d6000803e3d6000fd5b505050506040513d6000823e3d601f19601f8201168201806040525081019061120191906145e6565b91509150915091565b6000611214612c01565b905060008160000160089054906101000a900460ff1615905060008260000160009054906101000a900467ffffffffffffffff1690506000808267ffffffffffffffff161480156112625750825b9050600060018367ffffffffffffffff16148015611297575060003073ffffffffffffffffffffffffffffffffffffffff163b145b9050811580156112a5575080155b156112dc576040517ff92ee8a900000000000000000000000000000000000000000000000000000000815260040160405180910390fd5b60018560000160006101000a81548167ffffffffffffffff021916908367ffffffffffffffff160217905550831561132c5760018560000160086101000a81548160ff0219169083151502179055505b600073ffffffffffffffffffffffffffffffffffffffff1660008054906101000a900473ffffffffffffffffffffffffffffffffffffffff1673ffffffffffffffffffffffffffffffffffffffff16146113bb576040517f08c379a00000000000000000000000000000000000000000000000000000000081526004016113b290614880565b60405180910390fd5b856000806101000a81548173ffffffffffffffffffffffffffffffffffffffff021916908373ffffffffffffffffffffffffffffffffffffffff16021790555061140487612695565b61141461140f612c29565b612c31565b83156114705760008560000160086101000a81548160ff0219169083151502179055507fc7f505b2f371ae2175ee4913f4499e1f2633a7b5936321eed1cdaeb6115181d2600160405161146791906148e5565b60405180910390a15b50505050505050565b6000611483612b37565b600001609a0160000154905090565b600061149c612b37565b60000160000154905090565b606060006114b4612bd9565b905080600101600084815260200190815260200160002080548060200260200160405190810160405280929190818152602001828054801561151557602002820191906000526020600020905b815481526020019060010190808311611501575b5050505050915050919050565b61152a612c45565b6115346000612ccc565b565b6000611540612c29565b90508073ffffffffffffffffffffffffffffffffffffffff166115616128f4565b73ffffffffffffffffffffffffffffffffffffffff16146115b957806040517f118cdaa70000000000000000000000000000000000000000000000000000000081526004016115b091906138c0565b60405180910390fd5b6115c281612ccc565b50565b6000806115d0612d0c565b90508060000160009054906101000a900473ffffffffffffffffffffffffffffffffffffffff1691505090565b6000611607612b37565b600001609a0160010154905090565b61161e6132a3565b611626612b37565b60000160000154841461166e576040517f08c379a00000000000000000000000000000000000000000000000000000000081526004016116659061494c565b60405180910390fd5b6000611678612b37565b60000173__$068aad146bf104111ba65c4a1de2cd0e23$__630b1a9cd39091866040518363ffffffff1660e01b81526004016116b592919061480b565b606060405180830381865af41580156116d2573d6000803e3d6000fd5b505050506040513d601f19601f820116820180604052508101906116f691906149d0565b9050600060405180608001604052808681526020018360000151815260200183602001518152602001836040015181525090506000611733612b37565b60000173__$068aad146bf104111ba65c4a1de2cd0e23$__6316579a3690918786602001516040518463ffffffff1660e01b8152600401611776939291906149fd565b600060405180830381865af4158015611793573d6000803e3d6000fd5b505050506040513d6000823e3d601f19601f820116820180604052508101906117bc91906146ed565b90506000604051806101000160405280836000015181526020018360200151151581526020018360400151815260200183606001518152602001836080015181526020018360a00151151581526020018360c0015181526020018360e0015181525090506040518060400160405280848152602001828152509450505050509392505050565b600061184c612bd9565b9050600081600301600088815260200190815260200160002054905060008114611a0c5760008260010160008b81526020019081526020016000208054806020026020016040519081016040528092919081815260200182805480156118d157602002820191906000526020600020905b8154815260200190600101908083116118bd575b50505050509050600081600183516118e991906146b9565b815181106118fa576118f961477c565b5b602002602001015190506000846002016000838152602001908152602001600020604051806060016040529081600082015481526020016001820160009054906101000a900467ffffffffffffffff1667ffffffffffffffff1667ffffffffffffffff1681526020016002820160088060200260405190810160405280929190826008801561199e576020028201915b81548152602001906001019080831161198a575b505050505081525050905080604001516004600881106119c1576119c061477c565b5b6020020151421015611a08576040517f08c379a00000000000000000000000000000000000000000000000000000000081526004016119ff90614aa6565b60405180910390fd5b5050505b84611a1633612d34565b14611a56576040517f08c379a0000000000000000000000000000000000000000000000000000000008152600401611a4d90614b38565b60405180910390fd5b611a5f86610a5c565b611a9e576040517f08c379a0000000000000000000000000000000000000000000000000000000008152600401611a9590614c16565b60405180910390fd5b876602a389d246000014611ae7576040517f08c379a0000000000000000000000000000000000000000000000000000000008152600401611ade90614cf4565b60405180910390fd5b60008054906101000a900473ffffffffffffffffffffffffffffffffffffffff1673ffffffffffffffffffffffffffffffffffffffff166350de0e578989898989896040518763ffffffff1660e01b8152600401611b4a96959493929190614d3e565b602060405180830381865afa158015611b67573d6000803e3d6000fd5b505050506040513d601f19601f82011682018060405250810190611b8b9190614da1565b611bca576040517f08c379a0000000000000000000000000000000000000000000000000000000008152600401611bc190614e66565b60405180910390fd5b6000611be362278d0042611bde9190614e86565b612d54565b90506000604051806101c001604052806d01a53a1b5c73b6983e7520f2e0208152602001600160ff168152602001600115158152602001600015158152602001600060ff168152602001600063ffffffff1681526020018c81526020018560000160009054906101000a900467ffffffffffffffff1667ffffffffffffffff1681526020018367ffffffffffffffff1681526020016000815260200187600060048110611c9357611c9261477c565b5b6020020135815260200187600160048110611cb157611cb061477c565b5b6020020135815260200187600260048110611ccf57611cce61477c565b5b60200201358152602001611ce16127bc565b8152509050600073__$d457d7a9d70b3416d81729f95b82443f59$__6375e8efe0836040518263ffffffff1660e01b8152600401611d1f9190615042565b61010060405180830381865af4158015611d3d573d6000803e3d6000fd5b505050506040513d601f19601f82011682018060405250810190611d61919061510f565b9050600073__$2650005024f117ed9b6c57ec1bf6374b69$__63248f6677604051806080016040528085600060088110611d9e57611d9d61477c565b5b6020020151815260200185600160088110611dbc57611dbb61477c565b5b6020020151815260200185600260088110611dda57611dd961477c565b5b6020020151815260200185600360088110611df857611df761477c565b5b60200201518152506040518263ffffffff1660e01b8152600401611e1c91906151d9565b602060405180830381865af4158015611e39573d6000803e3d6000fd5b505050506040513d601f19601f82011682018060405250810190611e5d919061465d565b9050600073__$2650005024f117ed9b6c57ec1bf6374b69$__63248f6677604051806080016040528086600460088110611e9a57611e9961477c565b5b6020020151815260200186600560088110611eb857611eb761477c565b5b6020020151815260200186600660088110611ed657611ed561477c565b5b6020020151815260200186600760088110611ef457611ef361477c565b5b60200201518152506040518263ffffffff1660e01b8152600401611f1891906151d9565b602060405180830381865af4158015611f35573d6000803e3d6000fd5b505050506040513d601f19601f82011682018060405250810190611f59919061465d565b9050600060405180606001604052808960000160009054906101000a900467ffffffffffffffff1667ffffffffffffffff168152602001611f9942612d54565b67ffffffffffffffff1681526020018581525090508760040160008960000160009054906101000a900467ffffffffffffffff1667ffffffffffffffff16815260200190815260200160002060405180606001604052806040518060400160405280600a81526020017f61676541626f766531380000000000000000000000000000000000000000000081525081526020018c60006004811061203f5761203e61477c565b5b60200201358152602001604051806020016040528060008152508152509080600181540180825580915050600190039060005260206000209060030201600090919091909150600082015181600001908161209a9190615396565b506020820151816001015560408201518160020190816120ba91906154c3565b5050508760040160008960000160009054906101000a900467ffffffffffffffff1667ffffffffffffffff16815260200190815260200160002060405180606001604052806040518060400160405280600681526020017f67656e646572000000000000000000000000000000000000000000000000000081525081526020018c60016004811061214e5761214d61477c565b5b6020020135815260200160405180602001604052806000815250815250908060018154018082558091505060019003906000526020600020906003020160009091909190915060008201518160000190816121a99190615396565b506020820151816001015560408201518160020190816121c991906154c3565b5050508760040160008960000160009054906101000a900467ffffffffffffffff1667ffffffffffffffff16815260200190815260200160002060405180606001604052806040518060400160405280600781526020017f70696e636f64650000000000000000000000000000000000000000000000000081525081526020018c60026004811061225d5761225c61477c565b5b6020020135815260200160405180602001604052806000815250815250908060018154018082558091505060019003906000526020600020906003020160009091909190915060008201518160000190816122b89190615396565b506020820151816001015560408201518160020190816122d891906154c3565b5050508760040160008960000160009054906101000a900467ffffffffffffffff1667ffffffffffffffff16815260200190815260200160002060405180606001604052806040518060400160405280600581526020017f737461746500000000000000000000000000000000000000000000000000000081525081526020018c60036004811061236c5761236b61477c565b5b6020020135815260200160405180602001604052806000815250815250908060018154018082558091505060019003906000526020600020906003020160009091909190915060008201518160000190816123c79190615396565b506020820151816001015560408201518160020190816123e791906154c3565b5050508e8860030160008f81526020019081526020016000208190555061240e8383612dab565b6124188f82612e99565b505050505050505050505050505050565b612431613232565b61243961327b565b612441612b37565b60000173__$068aad146bf104111ba65c4a1de2cd0e23$__63d5a3b14e9091856040518363ffffffff1660e01b815260040161247e92919061480b565b600060405180830381865af415801561249b573d6000803e3d6000fd5b505050506040513d6000823e3d601f19601f820116820180604052508101906124c491906145e6565b91509150915091565b6124d5613232565b6124dd612b37565b60000173__$068aad146bf104111ba65c4a1de2cd0e23$__62cf08909091846040518363ffffffff1660e01b815260040161251992919061480b565b600060405180830381865af4158015612536573d6000803e3d6000fd5b505050506040513d6000823e3d601f19601f8201168201806040525081019061255f91906146ed565b9050919050565b61256e613338565b612576612b37565b60000173__$068aad146bf104111ba65c4a1de2cd0e23$__630b1a9cd39091846040518363ffffffff1660e01b81526004016125b392919061480b565b606060405180830381865af41580156125d0573d6000803e3d6000fd5b505050506040513d601f19601f820116820180604052508101906125f491906149d0565b9050919050565b612603613232565b61260b612b37565b60000173__$068aad146bf104111ba65c4a1de2cd0e23$__6397ac53919091846040518363ffffffff1660e01b815260040161264892919061480b565b600060405180830381865af4158015612665573d6000803e3d6000fd5b505050506040513d6000823e3d601f19601f8201168201806040525081019061268e91906146ed565b9050919050565b61269d612b37565b60000173__$068aad146bf104111ba65c4a1de2cd0e23$__63d3cd4e9b909183306126c661115d565b6040518563ffffffff1660e01b81526004016126e594939291906155a4565b60006040518083038186803b1580156126fd57600080fd5b505af4158015612711573d6000803e3d6000fd5b5050505050565b6000612722612b37565b600001609a0160020154905090565b600061273b612b37565b60000173__$068aad146bf104111ba65c4a1de2cd0e23$__631e75e7f390916040518263ffffffff1660e01b81526004016127769190614642565b602060405180830381865af4158015612793573d6000803e3d6000fd5b505050506040513d601f19601f820116820180604052508101906127b7919061465d565b905090565b6000804244336040516020016127d493929190615652565b6040516020818303038152906040528051906020012060001c905060007f1fffffffffffffffffffffffffffffffffffffffffffffffffffffffffffffff90508082169250505090565b6040518060400160405280600581526020017f302e302e3100000000000000000000000000000000000000000000000000000081525081565b61285f613232565b612867612b37565b60000173__$068aad146bf104111ba65c4a1de2cd0e23$__6316579a36909185856040518463ffffffff1660e01b81526004016128a6939291906149fd565b600060405180830381865af41580156128c3573d6000803e3d6000fd5b505050506040513d6000823e3d601f19601f820116820180604052508101906128ec91906146ed565b905092915050565b6000806128ff612fe3565b90508060000160009054906101000a900473ffffffffffffffffffffffffffffffffffffffff1691505090565b612934612c45565b61293c612b37565b60000173__$068aad146bf104111ba65c4a1de2cd0e23$__638ad7195d9091836040518363ffffffff1660e01b81526004016129799291906142d1565b60006040518083038186803b15801561299157600080fd5b505af41580156129a5573d6000803e3d6000fd5b505050506129b1612b37565b60000173__$068aad146bf104111ba65c4a1de2cd0e23$__632eb747d290916040518263ffffffff1660e01b81526004016129ec9190614642565b60006040518083038186803b158015612a0457600080fd5b505af4158015612a18573d6000803e3d6000fd5b5050505050565b612a27612c45565b6000612a31612fe3565b9050818160000160006101000a81548173ffffffffffffffffffffffffffffffffffffffff021916908373ffffffffffffffffffffffffffffffffffffffff1602179055508173ffffffffffffffffffffffffffffffffffffffff16612a956115c5565b73ffffffffffffffffffffffffffffffffffffffff167f38d16b8cac22d99fc7c124b9cd0de2d3fa1faef420bfe791d8c362d765e2270060405160405180910390a35050565b6000612ae5612b37565b60000160020160009054906101000a900460ff16905090565b6040518060400160405280600581526020017f312e302e3000000000000000000000000000000000000000000000000000000081525081565b60007f3018a310c36c4f8228f09bf3b1822685cf0971daa8265a58ca807c4a4daba400905090565b60007f5d1ca631000000000000000000000000000000000000000000000000000000007bffffffffffffffffffffffffffffffffffffffffffffffffffffffff1916827bffffffffffffffffffffffffffffffffffffffffffffffffffffffff19161480612bd25750612bd18261300b565b5b9050919050565b60007f33009af875187a3bcbd4b4a66e5f861007d091075539980f2ae469e83db83e00905090565b60007ff0c57e16840df040f15088dc2f81fe391c3923bec73e23a9662efc9c229c6a00905090565b600033905090565b612c39613075565b612c42816130b5565b50565b612c4d612c29565b73ffffffffffffffffffffffffffffffffffffffff16612c6b6115c5565b73ffffffffffffffffffffffffffffffffffffffff1614612cca57612c8e612c29565b6040517f118cdaa7000000000000000000000000000000000000000000000000000000008152600401612cc191906138c0565b60405180910390fd5b565b6000612cd6612fe3565b90508060000160006101000a81549073ffffffffffffffffffffffffffffffffffffffff0219169055612d088261313b565b5050565b60007f9016d09d72d40fdae2fd8ceac6b6234c7706214fd39c1cd1e609a0528c199300905090565b60008173ffffffffffffffffffffffffffffffffffffffff169050919050565b600067ffffffffffffffff8016821115612da3576040517f08c379a0000000000000000000000000000000000000000000000000000000008152600401612d9a906156db565b60405180910390fd5b819050919050565b612db3612b37565b60000173__$068aad146bf104111ba65c4a1de2cd0e23$__6306fb1575909184846040518463ffffffff1660e01b8152600401612df293929190614745565b60006040518083038186803b158015612e0a57600080fd5b505af4158015612e1e573d6000803e3d6000fd5b50505050612e2a612b37565b60000173__$068aad146bf104111ba65c4a1de2cd0e23$__632eb747d290916040518263ffffffff1660e01b8152600401612e659190614642565b60006040518083038186803b158015612e7d57600080fd5b505af4158015612e91573d6000803e3d6000fd5b505050505050565b6000612ea3612bd9565b90508060010160008481526020019081526020016000208160000160009054906101000a900467ffffffffffffffff16908060018154018082558091505060019003906000526020600020016000909167ffffffffffffffff16909190915055818160020160008360000160009054906101000a900467ffffffffffffffff1667ffffffffffffffff1681526020019081526020016000206000820151816000015560208201518160010160006101000a81548167ffffffffffffffff021916908367ffffffffffffffff160217905550604082015181600201906008612f8b929190613359565b5090505080600001600081819054906101000a900467ffffffffffffffff1680929190612fb7906156fb565b91906101000a81548167ffffffffffffffff021916908367ffffffffffffffff16021790555050505050565b60007f237e158222e3e6968b72b9db0d8043aacf074ad9f650f0d1606b4d82ee432c00905090565b60007f01ffc9a7000000000000000000000000000000000000000000000000000000007bffffffffffffffffffffffffffffffffffffffffffffffffffffffff1916827bffffffffffffffffffffffffffffffffffffffffffffffffffffffff1916149050919050565b61307d613212565b6130b3576040517fd7e6bcf800000000000000000000000000000000000000000000000000000000815260040160405180910390fd5b565b6130bd613075565b600073ffffffffffffffffffffffffffffffffffffffff168173ffffffffffffffffffffffffffffffffffffffff160361312f5760006040517f1e4fbdf700000000000000000000000000000000000000000000000000000000815260040161312691906138c0565b60405180910390fd5b61313881612ccc565b50565b6000613145612d0c565b905060008160000160009054906101000a900473ffffffffffffffffffffffffffffffffffffffff169050828260000160006101000a81548173ffffffffffffffffffffffffffffffffffffffff021916908373ffffffffffffffffffffffffffffffffffffffff1602179055508273ffffffffffffffffffffffffffffffffffffffff168173ffffffffffffffffffffffffffffffffffffffff167f8be0079c531659141344cd1fd0a4f28419497f9722a3daafe3b4186f6b6457e060405160405180910390a3505050565b600061321c612c01565b60000160089054906101000a900460ff16905090565b6040518061010001604052806000815260200160001515815260200160608152602001600081526020016000815260200160001515815260200160008152602001600081525090565b6040518060800160405280600081526020016000815260200160008152602001600081525090565b60405180604001604052806132b6613399565b81526020016132c36133c1565b81525090565b6040518060c00160405280600081526020016060815260200160608152602001600067ffffffffffffffff16815260200161330261340a565b815260200161330f613424565b81525090565b604051806101000160405280600890602082028036833780820191505090505090565b60405180606001604052806000815260200160008152602001600081525090565b8260088101928215613388579160200282015b8281111561338757825182559160200191906001019061336c565b5b509050613395919061343e565b5090565b6040518060800160405280600081526020016000815260200160008152602001600081525090565b6040518061010001604052806000815260200160001515815260200160608152602001600081526020016000815260200160001515815260200160008152602001600081525090565b604051806040016040528060608152602001606081525090565b604051806040016040528060608152602001606081525090565b5b8082111561345757600081600090555060010161343f565b5090565b6000604051905090565b600080fd5b600080fd5b600067ffffffffffffffff82169050919050565b61348c8161346f565b811461349757600080fd5b50565b6000813590506134a981613483565b92915050565b6000602082840312156134c5576134c4613465565b5b60006134d38482850161349a565b91505092915050565b6000819050919050565b6134ef816134dc565b82525050565b60008115159050919050565b61350a816134f5565b82525050565b600081519050919050565b600082825260208201905092915050565b6000819050602082019050919050565b600061354883836134e6565b60208301905092915050565b6000602082019050919050565b600061356c82613510565b613576818561351b565b93506135818361352c565b8060005b838110156135b2578151613599888261353c565b97506135a483613554565b925050600181019050613585565b5085935050505092915050565b6000610100830160008301516135d860008601826134e6565b5060208301516135eb6020860182613501565b50604083015184820360408601526136038282613561565b915050606083015161361860608601826134e6565b50608083015161362b60808601826134e6565b5060a083015161363e60a0860182613501565b5060c083015161365160c08601826134e6565b5060e083015161366460e08601826134e6565b508091505092915050565b60808201600082015161368560008501826134e6565b50602082015161369860208501826134e6565b5060408201516136ab60408501826134e6565b5060608201516136be60608501826134e6565b50505050565b600060a08201905081810360008301526136de81856135bf565b90506136ed602083018461366f565b9392505050565b6136fd816134dc565b82525050565b600060208201905061371860008301846136f4565b92915050565b60007fffffffff0000000000000000000000000000000000000000000000000000000082169050919050565b6137538161371e565b811461375e57600080fd5b50565b6000813590506137708161374a565b92915050565b60006020828403121561378c5761378b613465565b5b600061379a84828501613761565b91505092915050565b6137ac816134f5565b82525050565b60006020820190506137c760008301846137a3565b92915050565b600081519050919050565b600082825260208201905092915050565b60005b838110156138075780820151818401526020810190506137ec565b60008484015250505050565b6000601f19601f8301169050919050565b600061382f826137cd565b61383981856137d8565b93506138498185602086016137e9565b61385281613813565b840191505092915050565b600060208201905081810360008301526138778184613824565b905092915050565b600073ffffffffffffffffffffffffffffffffffffffff82169050919050565b60006138aa8261387f565b9050919050565b6138ba8161389f565b82525050565b60006020820190506138d560008301846138b1565b92915050565b6138e4816134dc565b81146138ef57600080fd5b50565b600081359050613901816138db565b92915050565b6000806040838503121561391e5761391d613465565b5b600061392c858286016138f2565b925050602061393d8582860161349a565b9150509250929050565b60808201600082015161395d60008501826134e6565b50602082015161397060208501826134e6565b50604082015161398360408501826134e6565b50606082015161399660608501826134e6565b50505050565b6000610100830160008301516139b560008601826134e6565b5060208301516139c86020860182613501565b50604083015184820360408601526139e08282613561565b91505060608301516139f560608601826134e6565b506080830151613a0860808601826134e6565b5060a0830151613a1b60a0860182613501565b5060c0830151613a2e60c08601826134e6565b5060e0830151613a4160e08601826134e6565b508091505092915050565b600060a083016000830151613a646000860182613947565b5060208301518482036080860152613a7c828261399c565b9150508091505092915050565b60006020820190508181036000830152613aa38184613a4c565b905092915050565b600060208284031215613ac157613ac0613465565b5b6000613acf848285016138f2565b91505092915050565b60006020820190508181036000830152613af281846135bf565b905092915050565b60008060408385031215613b1157613b10613465565b5b6000613b1f858286016138f2565b9250506020613b30858286016138f2565b9150509250929050565b600081519050919050565b600082825260208201905092915050565b6000819050602082019050919050565b600082825260208201905092915050565b6000613b82826137cd565b613b8c8185613b66565b9350613b9c8185602086016137e9565b613ba581613813565b840191505092915050565b6000613bbc8383613b77565b905092915050565b6000602082019050919050565b6000613bdc82613b3a565b613be68185613b45565b935083602082028501613bf885613b56565b8060005b85811015613c345784840389528151613c158582613bb0565b9450613c2083613bc4565b925060208a01995050600181019050613bfc565b50829750879550505050505092915050565b613c4f8161346f565b82525050565b60006040830160008301518482036000860152613c728282613b77565b91505060208301518482036020860152613c8c8282613b77565b9150508091505092915050565b60006040830160008301518482036000860152613cb68282613b77565b91505060208301518482036020860152613cd08282613b77565b9150508091505092915050565b600060c083016000830151613cf560008601826134e6565b5060208301518482036020860152613d0d8282613bd1565b91505060408301518482036040860152613d278282613b77565b9150506060830151613d3c6060860182613c46565b5060808301518482036080860152613d548282613c55565b91505060a083015184820360a0860152613d6e8282613c99565b9150508091505092915050565b600060089050919050565b600081905092915050565b6000819050919050565b6000602082019050919050565b613db181613d7b565b613dbb8184613d86565b9250613dc682613d91565b8060005b83811015613df7578151613dde878261353c565b9650613de983613d9b565b925050600181019050613dca565b505050505050565b600081519050919050565b600082825260208201905092915050565b6000819050602082019050919050565b600081519050919050565b600082825260208201905092915050565b6000613e5282613e2b565b613e5c8185613e36565b9350613e6c8185602086016137e9565b613e7581613813565b840191505092915050565b60006060830160008301518482036000860152613e9d8282613b77565b9150506020830151613eb260208601826134e6565b5060408301518482036040860152613eca8282613e47565b9150508091505092915050565b6000613ee38383613e80565b905092915050565b6000602082019050919050565b6000613f0382613dff565b613f0d8185613e0a565b935083602082028501613f1f85613e1b565b8060005b85811015613f5b5784840389528151613f3c8582613ed7565b9450613f4783613eeb565b925060208a01995050600181019050613f23565b50829750879550505050505092915050565b6000610140820190508181036000830152613f888186613cdd565b9050613f976020830185613da8565b818103610120830152613faa8184613ef8565b9050949350505050565b613fbd8161389f565b8114613fc857600080fd5b50565b600081359050613fda81613fb4565b92915050565b60008060408385031215613ff757613ff6613465565b5b600061400585828601613fcb565b925050602061401685828601613fcb565b9150509250929050565b600082825260208201905092915050565b600061403c82613510565b6140468185614020565b93506140518361352c565b8060005b83811015614082578151614069888261353c565b975061407483613554565b925050600181019050614055565b5085935050505092915050565b600060208201905081810360008301526140a98184614031565b905092915050565b6000806000606084860312156140ca576140c9613465565b5b60006140d8868287016138f2565b93505060206140e9868287016138f2565b92505060406140fa8682870161349a565b9150509250925092565b600080fd5b60008190508260206004028201111561412557614124614104565b5b92915050565b60008190508260206008028201111561414757614146614104565b5b92915050565b6000806000806000806000610220888a03121561416d5761416c613465565b5b600061417b8a828b016138f2565b975050602061418c8a828b016138f2565b965050604061419d8a828b016138f2565b95505060606141ae8a828b016138f2565b94505060806141bf8a828b016138f2565b93505060a06141d08a828b01614109565b9250506101206141e28a828b0161412b565b91505092959891949750929550565b60608201600082015161420760008501826134e6565b50602082015161421a60208501826134e6565b50604082015161422d60408501826134e6565b50505050565b600060608201905061424860008301846141f1565b92915050565b60006020828403121561426457614263613465565b5b600061427284828501613fcb565b91505092915050565b6000806040838503121561429257614291613465565b5b60006142a08582860161349a565b92505060206142b1858286016138f2565b9150509250929050565b8082525050565b6142cb8161346f565b82525050565b60006040820190506142e660008301856142bb565b6142f360208301846142c2565b9392505050565b600080fd5b7f4e487b7100000000000000000000000000000000000000000000000000000000600052604160045260246000fd5b61433782613813565b810181811067ffffffffffffffff82111715614356576143556142ff565b5b80604052505050565b600061436961345b565b9050614375828261432e565b919050565b600080fd5b60008151905061438e816138db565b92915050565b61439d816134f5565b81146143a857600080fd5b50565b6000815190506143ba81614394565b92915050565b600080fd5b600067ffffffffffffffff8211156143e0576143df6142ff565b5b602082029050602081019050919050565b60006144046143ff846143c5565b61435f565b9050808382526020820190506020840283018581111561442757614426614104565b5b835b81811015614450578061443c888261437f565b845260208401935050602081019050614429565b5050509392505050565b600082601f83011261446f5761446e6143c0565b5b815161447f8482602086016143f1565b91505092915050565b6000610100828403121561449f5761449e6142fa565b5b6144aa61010061435f565b905060006144ba8482850161437f565b60008301525060206144ce848285016143ab565b602083015250604082015167ffffffffffffffff8111156144f2576144f161437a565b5b6144fe8482850161445a565b60408301525060606145128482850161437f565b60608301525060806145268482850161437f565b60808301525060a061453a848285016143ab565b60a08301525060c061454e8482850161437f565b60c08301525060e06145628482850161437f565b60e08301525092915050565b600060808284031215614584576145836142fa565b5b61458e608061435f565b9050600061459e8482850161437f565b60008301525060206145b28482850161437f565b60208301525060406145c68482850161437f565b60408301525060606145da8482850161437f565b60608301525092915050565b60008060a083850312156145fd576145fc613465565b5b600083015167ffffffffffffffff81111561461b5761461a61346a565b5b61462785828601614488565b92505060206146388582860161456e565b9150509250929050565b600060208201905061465760008301846142bb565b92915050565b60006020828403121561467357614672613465565b5b60006146818482850161437f565b91505092915050565b7f4e487b7100000000000000000000000000000000000000000000000000000000600052601160045260246000fd5b60006146c4826134dc565b91506146cf836134dc565b92508282039050818111156146e7576146e661468a565b5b92915050565b60006020828403121561470357614702613465565b5b600082015167ffffffffffffffff8111156147215761472061346a565b5b61472d84828501614488565b91505092915050565b61473f816134dc565b82525050565b600060608201905061475a60008301866142bb565b6147676020830185614736565b6147746040830184614736565b949350505050565b7f4e487b7100000000000000000000000000000000000000000000000000000000600052603260045260246000fd5b7f4e487b7100000000000000000000000000000000000000000000000000000000600052602260045260246000fd5b600060028204905060018216806147f257607f821691505b602082108103614805576148046147ab565b5b50919050565b600060408201905061482060008301856142bb565b61482d6020830184614736565b9392505050565b7f416c726561647920696e697469616c697a656400000000000000000000000000600082015250565b600061486a6013836137d8565b915061487582614834565b602082019050919050565b600060208201905081810360008301526148998161485d565b9050919050565b6000819050919050565b6000819050919050565b60006148cf6148ca6148c5846148a0565b6148aa565b61346f565b9050919050565b6148df816148b4565b82525050565b60006020820190506148fa60008301846148d6565b92915050565b7f4964656e74697479206964206d69736d61746368000000000000000000000000600082015250565b60006149366014836137d8565b915061494182614900565b602082019050919050565b6000602082019050818103600083015261496581614929565b9050919050565b600060608284031215614982576149816142fa565b5b61498c606061435f565b9050600061499c8482850161437f565b60008301525060206149b08482850161437f565b60208301525060406149c48482850161437f565b60408301525092915050565b6000606082840312156149e6576149e5613465565b5b60006149f48482850161496c565b91505092915050565b6000606082019050614a1260008301866142bb565b614a1f60208301856142c2565b614a2c6040830184614736565b949350505050565b7f5b416e6f6e4161646861617243726564656e7469616c4973737565725d3a205060008201527f726576696f757320636c61696d206e6f7420657870697265642e000000000000602082015250565b6000614a90603a836137d8565b9150614a9b82614a34565b604082019050919050565b60006020820190508181036000830152614abf81614a83565b9050919050565b7f5b416e6f6e4161646861617242616c616e636543726564656e7469616c49737360008201527f7565725d3a2057726f6e672075736572207369676e616c2073656e742e000000602082015250565b6000614b22603d836137d8565b9150614b2d82614ac6565b604082019050919050565b60006020820190508181036000830152614b5181614b15565b9050919050565b7f5b416e6f6e4161646861617242616c616e636543726564656e7469616c49737360008201527f7565725d3a2050726f6f66206d7573742062652067656e65726174656420776960208201527f746820416164686161722064617461207369676e6564206c657373207468616e60408201527f203320686f7572732061676f2e00000000000000000000000000000000000000606082015250565b6000614c00606d836137d8565b9150614c0b82614b58565b608082019050919050565b60006020820190508181036000830152614c2f81614bf3565b9050919050565b7f5b416e6f6e4161646861617242616c616e636543726564656e7469616c49737360008201527f7565725d3a2057726f6e67206e756c6c6966696572536565642c20796f75206d60208201527f7573742067656e65726174652070726f6f66207769746820746865207269676860408201527f7420736565642e00000000000000000000000000000000000000000000000000606082015250565b6000614cde6067836137d8565b9150614ce982614c36565b608082019050919050565b60006020820190508181036000830152614d0d81614cd1565b9050919050565b82818337505050565b614d2960808383614d14565b5050565b614d3a6101008383614d14565b5050565b600061020082019050614d5460008301896136f4565b614d6160208301886136f4565b614d6e60408301876136f4565b614d7b60608301866136f4565b614d886080830185614d1d565b614d96610100830184614d2d565b979650505050505050565b600060208284031215614db757614db6613465565b5b6000614dc5848285016143ab565b91505092915050565b7f5b416e6f6e4161646861617242616c616e636543726564656e7469616c49737360008201527f7565725d3a205468652070726f6f662073656e74206973206e6f742076616c6960208201527f642e000000000000000000000000000000000000000000000000000000000000604082015250565b6000614e506042836137d8565b9150614e5b82614dce565b606082019050919050565b60006020820190508181036000830152614e7f81614e43565b9050919050565b6000614e91826134dc565b9150614e9c836134dc565b9250828201905080821115614eb457614eb361468a565b5b92915050565b614ec3816134dc565b82525050565b600060ff82169050919050565b614edf81614ec9565b82525050565b614eee816134f5565b82525050565b600063ffffffff82169050919050565b614f0d81614ef4565b82525050565b614f1c8161346f565b82525050565b6101c082016000820151614f396000850182614eba565b506020820151614f4c6020850182614ed6565b506040820151614f5f6040850182614ee5565b506060820151614f726060850182614ee5565b506080820151614f856080850182614ed6565b5060a0820151614f9860a0850182614f04565b5060c0820151614fab60c0850182614eba565b5060e0820151614fbe60e0850182614f13565b50610100820151614fd3610100850182614f13565b50610120820151614fe8610120850182614eba565b50610140820151614ffd610140850182614eba565b50610160820151615012610160850182614eba565b50610180820151615027610180850182614eba565b506101a082015161503c6101a0850182614eba565b50505050565b60006101c0820190506150586000830184614f22565b92915050565b600067ffffffffffffffff821115615079576150786142ff565b5b602082029050919050565b60006150976150928461505e565b61435f565b905080602084028301858111156150b1576150b0614104565b5b835b818110156150da57806150c6888261437f565b8452602084019350506020810190506150b3565b5050509392505050565b600082601f8301126150f9576150f86143c0565b5b6008615106848285615084565b91505092915050565b6000610100828403121561512657615125613465565b5b6000615134848285016150e4565b91505092915050565b600060049050919050565b600081905092915050565b6000819050919050565b60006151698383614eba565b60208301905092915050565b6000602082019050919050565b61518b8161513d565b6151958184615148565b92506151a082615153565b8060005b838110156151d15781516151b8878261515d565b96506151c383615175565b9250506001810190506151a4565b505050505050565b60006080820190506151ee6000830184615182565b92915050565b60008190508160005260206000209050919050565b60006020601f8301049050919050565b600082821b905092915050565b6000600883026152567fffffffffffffffffffffffffffffffffffffffffffffffffffffffffffffffff82615219565b6152608683615219565b95508019841693508086168417925050509392505050565b600061529361528e615289846134dc565b6148aa565b6134dc565b9050919050565b6000819050919050565b6152ad83615278565b6152c16152b98261529a565b848454615226565b825550505050565b600090565b6152d66152c9565b6152e18184846152a4565b505050565b5b81811015615305576152fa6000826152ce565b6001810190506152e7565b5050565b601f82111561534a5761531b816151f4565b61532484615209565b81016020851015615333578190505b61534761533f85615209565b8301826152e6565b50505b505050565b600082821c905092915050565b600061536d6000198460080261534f565b1980831691505092915050565b6000615386838361535c565b9150826002028217905092915050565b61539f826137cd565b67ffffffffffffffff8111156153b8576153b76142ff565b5b6153c282546147da565b6153cd828285615309565b600060209050601f83116001811461540057600084156153ee578287015190505b6153f8858261537a565b865550615460565b601f19841661540e866151f4565b60005b8281101561543657848901518255600182019150602085019450602081019050615411565b86831015615453578489015161544f601f89168261535c565b8355505b6001600288020188555050505b505050505050565b60008190508160005260206000209050919050565b601f8211156154be5761548f81615468565b61549884615209565b810160208510156154a7578190505b6154bb6154b385615209565b8301826152e6565b50505b505050565b6154cc82613e2b565b67ffffffffffffffff8111156154e5576154e46142ff565b5b6154ef82546147da565b6154fa82828561547d565b600060209050601f83116001811461552d576000841561551b578287015190505b615525858261537a565b86555061558d565b601f19841661553b86615468565b60005b828110156155635784890151825560018201915060208501945060208101905061553e565b86831015615580578489015161557c601f89168261535c565b8355505b6001600288020188555050505b505050505050565b61559e8161389f565b82525050565b60006080820190506155b960008301876142bb565b6155c66020830186615595565b6155d36040830185615595565b6155e06060830184614736565b95945050505050565b6000819050919050565b6156046155ff826134dc565b6155e9565b82525050565b60008160601b9050919050565b60006156228261560a565b9050919050565b600061563482615617565b9050919050565b61564c6156478261389f565b615629565b82525050565b600061565e82866155f3565b60208201915061566e82856155f3565b60208201915061567e828461563b565b601482019150819050949350505050565b7f54696d657374616d7020657863656564732075696e7436342072616e67650000600082015250565b60006156c5601e836137d8565b91506156d08261568f565b602082019050919050565b600060208201905081810360008301526156f4816156b8565b9050919050565b60006157068261346f565b915067ffffffffffffffff82036157205761571f61468a565b5b60018201905091905056fe68747470733a2f2f7261772e67697468756275736572636f6e74656e742e636f6d2f616e6f6e2d616164686161722f7072697661646f2d636f6e7472616374732f6d61696e2f6173736574732f616e6f6e2d616164686161722e6a736f6e68747470733a2f2f736368656d612e6964656e332e696f2f636f72652f6a736f6e6c642f646973706c61794d6574686f642e6a736f6e6c6468747470733a2f2f7261772e67697468756275736572636f6e74656e742e636f6d2f616e6f6e2d616164686161722f7072697661646f2d636f6e7472616374732f6d61696e2f6173736574732f616e6f6e2d616164686161722d646973706c61792d6d6574686f642e6a736f6e68747470733a2f2f7261772e67697468756275736572636f6e74656e742e636f6d2f616e6f6e2d616164686161722f7072697661646f2d636f6e7472616374732f6d61696e2f6173736574732f616e6f6e2d616164686161722e6a736f6e6c64a264697066735822122073af6584529cefe538702d552bb6d6240886e7321474b19c64f602a7d84f01ae64736f6c63430008140033",
  "linkReferences": {
    "@iden3/contracts/lib/ClaimBuilder.sol": {
      "ClaimBuilder": [
        {
          "length": 20,
          "start": 7435
        }
      ]
    },
    "@iden3/contracts/lib/IdentityLib.sol": {
      "IdentityLib": [
        {
          "length": 20,
          "start": 2134
        },
        {
          "length": 20,
          "start": 2284
        },
        {
          "length": 20,
          "start": 2731
        },
        {
          "length": 20,
          "start": 2885
        },
        {
          "length": 20,
          "start": 3042
        },
        {
          "length": 20,
          "start": 4354
        },
        {
          "length": 20,
          "start": 4516
        },
        {
          "length": 20,
          "start": 5790
        },
        {
          "length": 20,
          "start": 5977
        },
        {
          "length": 20,
          "start": 9319
        },
        {
          "length": 20,
          "start": 9475
        },
        {
          "length": 20,
          "start": 9628
        },
        {
          "length": 20,
          "start": 9777
        },
        {
          "length": 20,
          "start": 9923
        },
        {
          "length": 20,
          "start": 10081
        },
        {
          "length": 20,
          "start": 10381
        },
        {
          "length": 20,
          "start": 10594
        },
        {
          "length": 20,
          "start": 10711
        },
        {
          "length": 20,
          "start": 11737
        },
        {
          "length": 20,
          "start": 11856
        }
      ]
    },
    "@iden3/contracts/lib/Poseidon.sol": {
      "PoseidonUnit4L": [
        {
          "length": 20,
          "start": 7560
        },
        {
          "length": 20,
          "start": 7812
        }
      ]
    }
  },
  "deployedLinkReferences": {
    "@iden3/contracts/lib/ClaimBuilder.sol": {
      "ClaimBuilder": [
        {
          "length": 20,
          "start": 7402
        }
      ]
    },
    "@iden3/contracts/lib/IdentityLib.sol": {
      "IdentityLib": [
        {
          "length": 20,
          "start": 2101
        },
        {
          "length": 20,
          "start": 2251
        },
        {
          "length": 20,
          "start": 2698
        },
        {
          "length": 20,
          "start": 2852
        },
        {
          "length": 20,
          "start": 3009
        },
        {
          "length": 20,
          "start": 4321
        },
        {
          "length": 20,
          "start": 4483
        },
        {
          "length": 20,
          "start": 5757
        },
        {
          "length": 20,
          "start": 5944
        },
        {
          "length": 20,
          "start": 9286
        },
        {
          "length": 20,
          "start": 9442
        },
        {
          "length": 20,
          "start": 9595
        },
        {
          "length": 20,
          "start": 9744
        },
        {
          "length": 20,
          "start": 9890
        },
        {
          "length": 20,
          "start": 10048
        },
        {
          "length": 20,
          "start": 10348
        },
        {
          "length": 20,
          "start": 10561
        },
        {
          "length": 20,
          "start": 10678
        },
        {
          "length": 20,
          "start": 11704
        },
        {
          "length": 20,
          "start": 11823
        }
      ]
    },
    "@iden3/contracts/lib/Poseidon.sol": {
      "PoseidonUnit4L": [
        {
          "length": 20,
          "start": 7527
        },
        {
          "length": 20,
          "start": 7779
        }
      ]
    }
  }
}